{
  "_format": "hh-sol-artifact-1",
  "contractName": "DexRNG",
  "sourceName": "contracts/DexRNG.sol",
  "abi": [
    {
      "inputs": [],
      "stateMutability": "nonpayable",
      "type": "constructor"
    },
    {
      "anonymous": false,
      "inputs": [
        {
          "indexed": true,
          "internalType": "address",
          "name": "previousOwner",
          "type": "address"
        },
        {
          "indexed": true,
          "internalType": "address",
          "name": "newOwner",
          "type": "address"
        }
      ],
      "name": "OwnershipTransferred",
      "type": "event"
    },
    {
      "anonymous": false,
      "inputs": [
        {
          "indexed": false,
          "internalType": "address",
          "name": "pair",
          "type": "address"
        },
        {
          "indexed": false,
          "internalType": "address",
          "name": "tokenA",
          "type": "address"
        },
        {
          "indexed": false,
          "internalType": "address",
          "name": "tokenB",
          "type": "address"
        }
      ],
      "name": "PairAdded",
      "type": "event"
    },
    {
      "anonymous": false,
      "inputs": [
        {
          "indexed": false,
          "internalType": "address",
          "name": "pair",
          "type": "address"
        },
        {
          "indexed": false,
          "internalType": "bool",
          "name": "active",
          "type": "bool"
        }
      ],
      "name": "PairStatusUpdated",
      "type": "event"
    },
    {
      "anonymous": false,
      "inputs": [
        {
          "indexed": true,
          "internalType": "address",
          "name": "requester",
          "type": "address"
        },
        {
          "indexed": false,
          "internalType": "uint256",
          "name": "randomNumber",
          "type": "uint256"
        }
      ],
      "name": "RandomNumber",
      "type": "event"
    },
    {
      "inputs": [
        {
          "internalType": "address",
          "name": "",
          "type": "address"
        }
      ],
      "name": "active",
      "outputs": [
        {
          "internalType": "bool",
          "name": "",
          "type": "bool"
        }
      ],
      "stateMutability": "view",
      "type": "function"
    },
    {
      "inputs": [
        {
          "internalType": "address",
          "name": "pair",
          "type": "address"
        }
      ],
      "name": "addPair",
      "outputs": [],
      "stateMutability": "nonpayable",
      "type": "function"
    },
    {
      "inputs": [
        {
          "internalType": "uint256",
          "name": "",
          "type": "uint256"
        }
      ],
      "name": "blockEntropy",
      "outputs": [
        {
          "internalType": "bool",
          "name": "",
          "type": "bool"
        }
      ],
      "stateMutability": "view",
      "type": "function"
    },
    {
      "inputs": [
        {
          "internalType": "address",
          "name": "pair",
          "type": "address"
        },
        {
          "internalType": "bool",
          "name": "activeStatus",
          "type": "bool"
        }
      ],
      "name": "changePairStatus",
      "outputs": [],
      "stateMutability": "nonpayable",
      "type": "function"
    },
    {
      "inputs": [],
      "name": "currentPairIndex",
      "outputs": [
        {
          "internalType": "uint256",
          "name": "",
          "type": "uint256"
        }
      ],
      "stateMutability": "view",
      "type": "function"
    },
    {
      "inputs": [
        {
          "internalType": "uint256",
          "name": "range",
          "type": "uint256"
        }
      ],
      "name": "getRandomNumber",
      "outputs": [
        {
          "internalType": "uint256",
          "name": "randomNumber",
          "type": "uint256"
        },
        {
          "internalType": "bool",
          "name": "acceptableEntropy",
          "type": "bool"
        }
      ],
      "stateMutability": "nonpayable",
      "type": "function"
    },
    {
      "inputs": [],
      "name": "owner",
      "outputs": [
        {
          "internalType": "address",
          "name": "",
          "type": "address"
        }
      ],
      "stateMutability": "view",
      "type": "function"
    },
    {
      "inputs": [
        {
          "internalType": "address",
          "name": "",
          "type": "address"
        }
      ],
      "name": "pairIndex",
      "outputs": [
        {
          "internalType": "uint256",
          "name": "",
          "type": "uint256"
        }
      ],
      "stateMutability": "view",
      "type": "function"
    },
    {
      "inputs": [
        {
          "internalType": "uint256",
          "name": "",
          "type": "uint256"
        }
      ],
      "name": "pairs",
      "outputs": [
        {
          "internalType": "address",
          "name": "tokenA",
          "type": "address"
        },
        {
          "internalType": "address",
          "name": "tokenB",
          "type": "address"
        },
        {
          "internalType": "address",
          "name": "pair",
          "type": "address"
        },
        {
          "internalType": "uint256",
          "name": "lastUpdateTimeStamp",
          "type": "uint256"
        }
      ],
      "stateMutability": "view",
      "type": "function"
    },
    {
      "inputs": [],
      "name": "renounceOwnership",
      "outputs": [],
      "stateMutability": "nonpayable",
      "type": "function"
    },
    {
      "inputs": [
        {
          "internalType": "address",
          "name": "newOwner",
          "type": "address"
        }
      ],
      "name": "transferOwnership",
      "outputs": [],
      "stateMutability": "nonpayable",
      "type": "function"
    },
    {
      "inputs": [
        {
          "internalType": "uint256",
          "name": "range",
          "type": "uint256"
        }
      ],
      "name": "viewRandomNumber",
      "outputs": [
        {
          "internalType": "uint256",
          "name": "randomNumber",
          "type": "uint256"
        }
      ],
      "stateMutability": "view",
      "type": "function"
    }
  ],
  "bytecode": "0x608060405234801561001057600080fd5b5060006100216100c460201b60201c565b9050806000806101000a81548173ffffffffffffffffffffffffffffffffffffffff021916908373ffffffffffffffffffffffffffffffffffffffff1602179055508073ffffffffffffffffffffffffffffffffffffffff16600073ffffffffffffffffffffffffffffffffffffffff167f8be0079c531659141344cd1fd0a4f28419497f9722a3daafe3b4186f6b6457e060405160405180910390a3506100cc565b600033905090565b61204b806100db6000396000f3fe608060405234801561001057600080fd5b50600436106100b45760003560e01c8063b37217a411610071578063b37217a41461017b578063b561bb31146101ac578063b91ac788146101dc578063c2b7bbb61461020f578063e15195511461022b578063f2fde38b1461025b576100b4565b8063428307c5146100b95780634ea71327146100e95780636176593d14610119578063715018a6146101375780638da5cb5b14610141578063aeb22dbb1461015f575b600080fd5b6100d360048036038101906100ce919061178f565b610277565b6040516100e09190611d3e565b60405180910390f35b61010360048036038101906100fe91906116b2565b61054d565b6040516101109190611c23565b60405180910390f35b61012161056d565b60405161012e9190611d3e565b60405180910390f35b61013f610573565b005b6101496106ad565b6040516101569190611b63565b60405180910390f35b61017960048036038101906101749190611704565b6106d6565b005b6101956004803603810190610190919061178f565b610869565b6040516101a3929190611d59565b60405180910390f35b6101c660048036038101906101c1919061178f565b610be5565b6040516101d39190611c23565b60405180910390f35b6101f660048036038101906101f1919061178f565b610c05565b6040516102069493929190611bb5565b60405180910390f35b610229600480360381019061022491906116b2565b610c95565b005b610245600480360381019061024091906116b2565b61120e565b6040516102529190611d3e565b60405180910390f35b610275600480360381019061027091906116b2565b611226565b005b600080600154116102bd576040517f08c379a00000000000000000000000000000000000000000000000000000000081526004016102b490611c9e565b60405180910390fd5b6000336002546001436102d09190611de9565b4060001c6040516020016102e693929190611b26565b6040516020818303038152906040528051906020012060001c90506000600190505b60015481101561053857600560006003600084815260200190815260200160002060020160009054906101000a900473ffffffffffffffffffffffffffffffffffffffff1673ffffffffffffffffffffffffffffffffffffffff1673ffffffffffffffffffffffffffffffffffffffff16815260200190815260200160002060009054906101000a900460ff1661039e57610525565b6000600360008381526020019081526020016000206040518060800160405290816000820160009054906101000a900473ffffffffffffffffffffffffffffffffffffffff1673ffffffffffffffffffffffffffffffffffffffff1673ffffffffffffffffffffffffffffffffffffffff1681526020016001820160009054906101000a900473ffffffffffffffffffffffffffffffffffffffff1673ffffffffffffffffffffffffffffffffffffffff1673ffffffffffffffffffffffffffffffffffffffff1681526020016002820160009054906101000a900473ffffffffffffffffffffffffffffffffffffffff1673ffffffffffffffffffffffffffffffffffffffff1673ffffffffffffffffffffffffffffffffffffffff16815260200160038201548152505090506000806104e68360400151846000015185602001516113cf565b509150915060006049886104fa9190611d93565b82846105069190611d93565b6105109190611f06565b9050808661051e9190611d93565b9550505050505b808061053090611e8f565b915050610308565b5082816105459190611f06565b915050919050565b60056020528060005260406000206000915054906101000a900460ff1681565b60015481565b61057b6114e9565b73ffffffffffffffffffffffffffffffffffffffff166105996106ad565b73ffffffffffffffffffffffffffffffffffffffff16146105ef576040517f08c379a00000000000000000000000000000000000000000000000000000000081526004016105e690611cfe565b60405180910390fd5b600073ffffffffffffffffffffffffffffffffffffffff1660008054906101000a900473ffffffffffffffffffffffffffffffffffffffff1673ffffffffffffffffffffffffffffffffffffffff167f8be0079c531659141344cd1fd0a4f28419497f9722a3daafe3b4186f6b6457e060405160405180910390a360008060006101000a81548173ffffffffffffffffffffffffffffffffffffffff021916908373ffffffffffffffffffffffffffffffffffffffff160217905550565b60008060009054906101000a900473ffffffffffffffffffffffffffffffffffffffff16905090565b6106de6114e9565b73ffffffffffffffffffffffffffffffffffffffff166106fc6106ad565b73ffffffffffffffffffffffffffffffffffffffff1614610752576040517f08c379a000000000000000000000000000000000000000000000000000000000815260040161074990611cfe565b60405180910390fd5b6000600460008473ffffffffffffffffffffffffffffffffffffffff1673ffffffffffffffffffffffffffffffffffffffff1681526020019081526020016000205414156107d5576040517f08c379a00000000000000000000000000000000000000000000000000000000081526004016107cc90611cbe565b60405180910390fd5b80600560008473ffffffffffffffffffffffffffffffffffffffff1673ffffffffffffffffffffffffffffffffffffffff16815260200190815260200160002060006101000a81548160ff0219169083151502179055507fe1ceb8c32031f9be884892c03cac438c6f9d5eedeaed79300a0ec3225f7a66f1828260405161085d929190611bfa565b60405180910390a15050565b6000806000600154116108b1576040517f08c379a00000000000000000000000000000000000000000000000000000000081526004016108a890611c9e565b60405180910390fd5b6006600043815260200190815260200160002060009054906101000a900460ff1690506000336002546001436108e79190611de9565b4060001c6040516020016108fd93929190611b26565b6040516020818303038152906040528051906020012060001c90506000600190505b6001548111610b5057600560006003600084815260200190815260200160002060020160009054906101000a900473ffffffffffffffffffffffffffffffffffffffff1673ffffffffffffffffffffffffffffffffffffffff1673ffffffffffffffffffffffffffffffffffffffff16815260200190815260200160002060009054906101000a900460ff166109b457610b3d565b6000806000610a666003600086815260200190815260200160002060020160009054906101000a900473ffffffffffffffffffffffffffffffffffffffff166003600087815260200190815260200160002060000160009054906101000a900473ffffffffffffffffffffffffffffffffffffffff166003600088815260200190815260200160002060010160009054906101000a900473ffffffffffffffffffffffffffffffffffffffff166113cf565b92509250925060008060025414610aa05788600254610a859190611f06565b8385610a919190611d93565b610a9b9190611f06565b610ab8565b888385610aad9190611d93565b610ab79190611f06565b5b90508086610ac69190611d93565b95506003600086815260200190815260200160002060030154821115610b385786610b1c576001965060016006600043815260200190815260200160002060006101000a81548160ff0219169083151502179055505b8160036000878152602001908152602001600020600301819055505b505050505b8080610b4890611e8f565b91505061091f565b508381610b5d9190611f06565b92503383604051602001610b72929190611afa565b6040516020818303038152906040528051906020012060001c6002819055503373ffffffffffffffffffffffffffffffffffffffff167fe67ca81bebec5e7bdb46360f006e87ae045476c3f20b92d43c142ce57ede0bd884604051610bd79190611d3e565b60405180910390a250915091565b60066020528060005260406000206000915054906101000a900460ff1681565b60036020528060005260406000206000915090508060000160009054906101000a900473ffffffffffffffffffffffffffffffffffffffff16908060010160009054906101000a900473ffffffffffffffffffffffffffffffffffffffff16908060020160009054906101000a900473ffffffffffffffffffffffffffffffffffffffff16908060030154905084565b610c9d6114e9565b73ffffffffffffffffffffffffffffffffffffffff16610cbb6106ad565b73ffffffffffffffffffffffffffffffffffffffff1614610d11576040517f08c379a0000000000000000000000000000000000000000000000000000000008152600401610d0890611cfe565b60405180910390fd5b6103e88173ffffffffffffffffffffffffffffffffffffffff1663ba9a7a566040518163ffffffff1660e01b815260040160206040518083038186803b158015610d5a57600080fd5b505afa158015610d6e573d6000803e3d6000fd5b505050506040513d601f19601f82011682018060405250810190610d9291906117b8565b14610dd2576040517f08c379a0000000000000000000000000000000000000000000000000000000008152600401610dc990611c5e565b60405180910390fd5b6000600460008373ffffffffffffffffffffffffffffffffffffffff1673ffffffffffffffffffffffffffffffffffffffff1681526020019081526020016000205414610e54576040517f08c379a0000000000000000000000000000000000000000000000000000000008152600401610e4b90611cde565b60405180910390fd5b6001806000828254610e669190611d93565b9250508190555060405180608001604052808273ffffffffffffffffffffffffffffffffffffffff16630dfe16816040518163ffffffff1660e01b815260040160206040518083038186803b158015610ebe57600080fd5b505afa158015610ed2573d6000803e3d6000fd5b505050506040513d601f19601f82011682018060405250810190610ef691906116db565b73ffffffffffffffffffffffffffffffffffffffff1681526020018273ffffffffffffffffffffffffffffffffffffffff1663d21220a76040518163ffffffff1660e01b815260040160206040518083038186803b158015610f5757600080fd5b505afa158015610f6b573d6000803e3d6000fd5b505050506040513d601f19601f82011682018060405250810190610f8f91906116db565b73ffffffffffffffffffffffffffffffffffffffff1681526020018273ffffffffffffffffffffffffffffffffffffffff168152602001600081525060036000600154815260200190815260200160002060008201518160000160006101000a81548173ffffffffffffffffffffffffffffffffffffffff021916908373ffffffffffffffffffffffffffffffffffffffff16021790555060208201518160010160006101000a81548173ffffffffffffffffffffffffffffffffffffffff021916908373ffffffffffffffffffffffffffffffffffffffff16021790555060408201518160020160006101000a81548173ffffffffffffffffffffffffffffffffffffffff021916908373ffffffffffffffffffffffffffffffffffffffff16021790555060608201518160030155905050600154600460008373ffffffffffffffffffffffffffffffffffffffff1673ffffffffffffffffffffffffffffffffffffffff168152602001908152602001600020819055506001600560008373ffffffffffffffffffffffffffffffffffffffff1673ffffffffffffffffffffffffffffffffffffffff16815260200190815260200160002060006101000a81548160ff0219169083151502179055507f7f46075c67ca5bbd3aaf82d8e324282141f27b7cba3376e5498a6b70c9931c2a8160036000600154815260200190815260200160002060000160009054906101000a900473ffffffffffffffffffffffffffffffffffffffff1660036000600154815260200190815260200160002060010160009054906101000a900473ffffffffffffffffffffffffffffffffffffffff1660405161120393929190611b7e565b60405180910390a150565b60046020528060005260406000206000915090505481565b61122e6114e9565b73ffffffffffffffffffffffffffffffffffffffff1661124c6106ad565b73ffffffffffffffffffffffffffffffffffffffff16146112a2576040517f08c379a000000000000000000000000000000000000000000000000000000000815260040161129990611cfe565b60405180910390fd5b600073ffffffffffffffffffffffffffffffffffffffff168173ffffffffffffffffffffffffffffffffffffffff161415611312576040517f08c379a000000000000000000000000000000000000000000000000000000000815260040161130990611c3e565b60405180910390fd5b8073ffffffffffffffffffffffffffffffffffffffff1660008054906101000a900473ffffffffffffffffffffffffffffffffffffffff1673ffffffffffffffffffffffffffffffffffffffff167f8be0079c531659141344cd1fd0a4f28419497f9722a3daafe3b4186f6b6457e060405160405180910390a3806000806101000a81548173ffffffffffffffffffffffffffffffffffffffff021916908373ffffffffffffffffffffffffffffffffffffffff16021790555050565b6000806000806113df86866114f1565b50905060008060008973ffffffffffffffffffffffffffffffffffffffff16630902f1ac6040518163ffffffff1660e01b815260040160606040518083038186803b15801561142d57600080fd5b505afa158015611441573d6000803e3d6000fd5b505050506040513d601f19601f820116820180604052508101906114659190611740565b63ffffffff1692506dffffffffffffffffffffffffffff1692506dffffffffffffffffffffffffffff1692508373ffffffffffffffffffffffffffffffffffffffff168973ffffffffffffffffffffffffffffffffffffffff16146114cc578183826114d0565b8282825b8097508198508299505050505050505093509350939050565b600033905090565b6000808273ffffffffffffffffffffffffffffffffffffffff168473ffffffffffffffffffffffffffffffffffffffff161415611563576040517f08c379a000000000000000000000000000000000000000000000000000000000815260040161155a90611c7e565b60405180910390fd5b8273ffffffffffffffffffffffffffffffffffffffff168473ffffffffffffffffffffffffffffffffffffffff161061159d5782846115a0565b83835b8092508193505050600073ffffffffffffffffffffffffffffffffffffffff168273ffffffffffffffffffffffffffffffffffffffff161415611618576040517f08c379a000000000000000000000000000000000000000000000000000000000815260040161160f90611d1e565b60405180910390fd5b9250929050565b60008135905061162e81611fa2565b92915050565b60008151905061164381611fa2565b92915050565b60008135905061165881611fb9565b92915050565b60008151905061166d81611fd0565b92915050565b60008135905061168281611fe7565b92915050565b60008151905061169781611fe7565b92915050565b6000815190506116ac81611ffe565b92915050565b6000602082840312156116c457600080fd5b60006116d28482850161161f565b91505092915050565b6000602082840312156116ed57600080fd5b60006116fb84828501611634565b91505092915050565b6000806040838503121561171757600080fd5b60006117258582860161161f565b925050602061173685828601611649565b9150509250929050565b60008060006060848603121561175557600080fd5b60006117638682870161165e565b93505060206117748682870161165e565b92505060406117858682870161169d565b9150509250925092565b6000602082840312156117a157600080fd5b60006117af84828501611673565b91505092915050565b6000602082840312156117ca57600080fd5b60006117d884828501611688565b91505092915050565b6117ea81611e1d565b82525050565b6118016117fc82611e1d565b611ed8565b82525050565b61181081611e2f565b82525050565b6000611823602683611d82565b91507f4f776e61626c653a206e6577206f776e657220697320746865207a65726f206160008301527f64647265737300000000000000000000000000000000000000000000000000006020830152604082019050919050565b6000611889601e83611d82565b91507f496e76616c6964207061697220616464726573732070726f76696465642e00006000830152602082019050919050565b60006118c9602583611d82565b91507f556e697377617056324c6962726172793a204944454e544943414c5f4144445260008301527f45535345530000000000000000000000000000000000000000000000000000006020830152604082019050919050565b600061192f603383611d82565b91507f4e6f20556e697377617020706169727320617661696c61626c6520746f20647260008301527f61772072616e646f6d6e6573732066726f6d2e000000000000000000000000006020830152604082019050919050565b6000611995603783611d82565b91507f43616e6e6f74206368616e67652074686520737461747573206f66206120706160008301527f6972207468617420646f6573206e6f742065786973742e0000000000000000006020830152604082019050919050565b60006119fb603083611d82565b91507f54686973207061697220616c726561647920657869737473206173206120726160008301527f6e646f6d6e65737320736f757263652e000000000000000000000000000000006020830152604082019050919050565b6000611a61602083611d82565b91507f4f776e61626c653a2063616c6c6572206973206e6f7420746865206f776e65726000830152602082019050919050565b6000611aa1601e83611d82565b91507f556e697377617056324c6962726172793a205a45524f5f4144445245535300006000830152602082019050919050565b611add81611e75565b82525050565b611af4611aef82611e75565b611efc565b82525050565b6000611b0682856117f0565b601482019150611b168284611ae3565b6020820191508190509392505050565b6000611b3282866117f0565b601482019150611b428285611ae3565b602082019150611b528284611ae3565b602082019150819050949350505050565b6000602082019050611b7860008301846117e1565b92915050565b6000606082019050611b9360008301866117e1565b611ba060208301856117e1565b611bad60408301846117e1565b949350505050565b6000608082019050611bca60008301876117e1565b611bd760208301866117e1565b611be460408301856117e1565b611bf16060830184611ad4565b95945050505050565b6000604082019050611c0f60008301856117e1565b611c1c6020830184611807565b9392505050565b6000602082019050611c386000830184611807565b92915050565b60006020820190508181036000830152611c5781611816565b9050919050565b60006020820190508181036000830152611c778161187c565b9050919050565b60006020820190508181036000830152611c97816118bc565b9050919050565b60006020820190508181036000830152611cb781611922565b9050919050565b60006020820190508181036000830152611cd781611988565b9050919050565b60006020820190508181036000830152611cf7816119ee565b9050919050565b60006020820190508181036000830152611d1781611a54565b9050919050565b60006020820190508181036000830152611d3781611a94565b9050919050565b6000602082019050611d536000830184611ad4565b92915050565b6000604082019050611d6e6000830185611ad4565b611d7b6020830184611807565b9392505050565b600082825260208201905092915050565b6000611d9e82611e75565b9150611da983611e75565b9250827fffffffffffffffffffffffffffffffffffffffffffffffffffffffffffffffff03821115611dde57611ddd611f37565b5b828201905092915050565b6000611df482611e75565b9150611dff83611e75565b925082821015611e1257611e11611f37565b5b828203905092915050565b6000611e2882611e55565b9050919050565b60008115159050919050565b60006dffffffffffffffffffffffffffff82169050919050565b600073ffffffffffffffffffffffffffffffffffffffff82169050919050565b6000819050919050565b600063ffffffff82169050919050565b6000611e9a82611e75565b91507fffffffffffffffffffffffffffffffffffffffffffffffffffffffffffffffff821415611ecd57611ecc611f37565b5b600182019050919050565b6000611ee382611eea565b9050919050565b6000611ef582611f95565b9050919050565b6000819050919050565b6000611f1182611e75565b9150611f1c83611e75565b925082611f2c57611f2b611f66565b5b828206905092915050565b7f4e487b7100000000000000000000000000000000000000000000000000000000600052601160045260246000fd5b7f4e487b7100000000000000000000000000000000000000000000000000000000600052601260045260246000fd5b60008160601b9050919050565b611fab81611e1d565b8114611fb657600080fd5b50565b611fc281611e2f565b8114611fcd57600080fd5b50565b611fd981611e3b565b8114611fe457600080fd5b50565b611ff081611e75565b8114611ffb57600080fd5b50565b61200781611e7f565b811461201257600080fd5b5056fea26469706673582212203c710c638eb453bc3dbdd429aec7a1145c96188c12a51d6392d79312d5d2fa3164736f6c63430008000033",
  "linkReferences": {},
  "deployedLinkReferences": {}
}