{
  "_format": "hh-sol-artifact-1",
  "contractName": "DexRNG",
  "sourceName": "contracts/DexRNG.sol",
  "abi": [
    {
      "inputs": [],
      "stateMutability": "nonpayable",
      "type": "constructor"
    },
    {
      "anonymous": false,
      "inputs": [
        {
          "indexed": true,
          "internalType": "address",
          "name": "previousOwner",
          "type": "address"
        },
        {
          "indexed": true,
          "internalType": "address",
          "name": "newOwner",
          "type": "address"
        }
      ],
      "name": "OwnershipTransferred",
      "type": "event"
    },
    {
      "anonymous": false,
      "inputs": [
        {
          "indexed": false,
          "internalType": "address",
          "name": "pair",
          "type": "address"
        },
        {
          "indexed": false,
          "internalType": "address",
          "name": "tokenA",
          "type": "address"
        },
        {
          "indexed": false,
          "internalType": "address",
          "name": "tokenB",
          "type": "address"
        }
      ],
      "name": "PairAdded",
      "type": "event"
    },
    {
      "anonymous": false,
      "inputs": [
        {
          "indexed": false,
          "internalType": "address",
          "name": "pair",
          "type": "address"
        },
        {
          "indexed": false,
          "internalType": "bool",
          "name": "active",
          "type": "bool"
        }
      ],
      "name": "PairStatusUpdated",
      "type": "event"
    },
    {
      "anonymous": false,
      "inputs": [
        {
          "indexed": true,
          "internalType": "address",
          "name": "requester",
          "type": "address"
        },
        {
          "indexed": false,
          "internalType": "uint256",
          "name": "randomNumber",
          "type": "uint256"
        }
      ],
      "name": "RandomNumber",
      "type": "event"
    },
    {
      "inputs": [
        {
          "internalType": "address",
          "name": "",
          "type": "address"
        }
      ],
      "name": "active",
      "outputs": [
        {
          "internalType": "bool",
          "name": "",
          "type": "bool"
        }
      ],
      "stateMutability": "view",
      "type": "function"
    },
    {
      "inputs": [
        {
          "internalType": "address",
          "name": "pair",
          "type": "address"
        }
      ],
      "name": "addPair",
      "outputs": [],
      "stateMutability": "nonpayable",
      "type": "function"
    },
    {
      "inputs": [
        {
          "internalType": "address",
          "name": "pair",
          "type": "address"
        },
        {
          "internalType": "bool",
          "name": "activeStatus",
          "type": "bool"
        }
      ],
      "name": "changePairStatus",
      "outputs": [],
      "stateMutability": "nonpayable",
      "type": "function"
    },
    {
      "inputs": [],
      "name": "currentPairIndex",
      "outputs": [
        {
          "internalType": "uint256",
          "name": "",
          "type": "uint256"
        }
      ],
      "stateMutability": "view",
      "type": "function"
    },
    {
      "inputs": [
        {
          "internalType": "uint256",
          "name": "range",
          "type": "uint256"
        }
      ],
      "name": "getRandomNumber",
      "outputs": [
        {
          "internalType": "uint256",
          "name": "randomNumber",
          "type": "uint256"
        },
        {
          "internalType": "bool",
          "name": "acceptableEntropy",
          "type": "bool"
        }
      ],
      "stateMutability": "nonpayable",
      "type": "function"
    },
    {
      "inputs": [],
      "name": "owner",
      "outputs": [
        {
          "internalType": "address",
          "name": "",
          "type": "address"
        }
      ],
      "stateMutability": "view",
      "type": "function"
    },
    {
      "inputs": [
        {
          "internalType": "address",
          "name": "",
          "type": "address"
        }
      ],
      "name": "pairIndex",
      "outputs": [
        {
          "internalType": "uint256",
          "name": "",
          "type": "uint256"
        }
      ],
      "stateMutability": "view",
      "type": "function"
    },
    {
      "inputs": [
        {
          "internalType": "uint256",
          "name": "",
          "type": "uint256"
        }
      ],
      "name": "pairs",
      "outputs": [
        {
          "internalType": "address",
          "name": "tokenA",
          "type": "address"
        },
        {
          "internalType": "address",
          "name": "tokenB",
          "type": "address"
        },
        {
          "internalType": "address",
          "name": "pair",
          "type": "address"
        },
        {
          "internalType": "uint256",
          "name": "lastUpdateTimeStamp",
          "type": "uint256"
        }
      ],
      "stateMutability": "view",
      "type": "function"
    },
    {
      "inputs": [],
      "name": "renounceOwnership",
      "outputs": [],
      "stateMutability": "nonpayable",
      "type": "function"
    },
    {
      "inputs": [
        {
          "internalType": "address",
          "name": "newOwner",
          "type": "address"
        }
      ],
      "name": "transferOwnership",
      "outputs": [],
      "stateMutability": "nonpayable",
      "type": "function"
    },
    {
      "inputs": [
        {
          "internalType": "uint256",
          "name": "range",
          "type": "uint256"
        }
      ],
      "name": "viewRandomNumber",
      "outputs": [
        {
          "internalType": "uint256",
          "name": "randomNumber",
          "type": "uint256"
        }
      ],
      "stateMutability": "view",
      "type": "function"
    }
  ],
  "bytecode": "0x608060405234801561001057600080fd5b5060006100216100c460201b60201c565b9050806000806101000a81548173ffffffffffffffffffffffffffffffffffffffff021916908373ffffffffffffffffffffffffffffffffffffffff1602179055508073ffffffffffffffffffffffffffffffffffffffff16600073ffffffffffffffffffffffffffffffffffffffff167f8be0079c531659141344cd1fd0a4f28419497f9722a3daafe3b4186f6b6457e060405160405180910390a3506100cc565b600033905090565b611f7a806100db6000396000f3fe608060405234801561001057600080fd5b50600436106100a95760003560e01c8063aeb22dbb11610071578063aeb22dbb14610154578063b37217a414610170578063b91ac788146101a1578063c2b7bbb6146101d4578063e1519551146101f0578063f2fde38b14610220576100a9565b8063428307c5146100ae5780634ea71327146100de5780636176593d1461010e578063715018a61461012c5780638da5cb5b14610136575b600080fd5b6100c860048036038101906100c391906116be565b61023c565b6040516100d59190611c6d565b60405180910390f35b6100f860048036038101906100f391906115e1565b610512565b6040516101059190611b52565b60405180910390f35b610116610532565b6040516101239190611c6d565b60405180910390f35b610134610538565b005b61013e610672565b60405161014b9190611a92565b60405180910390f35b61016e60048036038101906101699190611633565b61069b565b005b61018a600480360381019061018591906116be565b61082e565b604051610198929190611c88565b60405180910390f35b6101bb60048036038101906101b691906116be565b610b34565b6040516101cb9493929190611ae4565b60405180910390f35b6101ee60048036038101906101e991906115e1565b610bc4565b005b61020a600480360381019061020591906115e1565b61113d565b6040516102179190611c6d565b60405180910390f35b61023a600480360381019061023591906115e1565b611155565b005b60008060015411610282576040517f08c379a000000000000000000000000000000000000000000000000000000000815260040161027990611bcd565b60405180910390fd5b6000336002546001436102959190611d18565b4060001c6040516020016102ab93929190611a55565b6040516020818303038152906040528051906020012060001c90506000600190505b6001548110156104fd57600560006003600084815260200190815260200160002060020160009054906101000a900473ffffffffffffffffffffffffffffffffffffffff1673ffffffffffffffffffffffffffffffffffffffff1673ffffffffffffffffffffffffffffffffffffffff16815260200190815260200160002060009054906101000a900460ff16610363576104ea565b6000600360008381526020019081526020016000206040518060800160405290816000820160009054906101000a900473ffffffffffffffffffffffffffffffffffffffff1673ffffffffffffffffffffffffffffffffffffffff1673ffffffffffffffffffffffffffffffffffffffff1681526020016001820160009054906101000a900473ffffffffffffffffffffffffffffffffffffffff1673ffffffffffffffffffffffffffffffffffffffff1673ffffffffffffffffffffffffffffffffffffffff1681526020016002820160009054906101000a900473ffffffffffffffffffffffffffffffffffffffff1673ffffffffffffffffffffffffffffffffffffffff1673ffffffffffffffffffffffffffffffffffffffff16815260200160038201548152505090506000806104ab8360400151846000015185602001516112fe565b509150915060006049886104bf9190611cc2565b82846104cb9190611cc2565b6104d59190611e35565b905080866104e39190611cc2565b9550505050505b80806104f590611dbe565b9150506102cd565b50828161050a9190611e35565b915050919050565b60056020528060005260406000206000915054906101000a900460ff1681565b60015481565b610540611418565b73ffffffffffffffffffffffffffffffffffffffff1661055e610672565b73ffffffffffffffffffffffffffffffffffffffff16146105b4576040517f08c379a00000000000000000000000000000000000000000000000000000000081526004016105ab90611c2d565b60405180910390fd5b600073ffffffffffffffffffffffffffffffffffffffff1660008054906101000a900473ffffffffffffffffffffffffffffffffffffffff1673ffffffffffffffffffffffffffffffffffffffff167f8be0079c531659141344cd1fd0a4f28419497f9722a3daafe3b4186f6b6457e060405160405180910390a360008060006101000a81548173ffffffffffffffffffffffffffffffffffffffff021916908373ffffffffffffffffffffffffffffffffffffffff160217905550565b60008060009054906101000a900473ffffffffffffffffffffffffffffffffffffffff16905090565b6106a3611418565b73ffffffffffffffffffffffffffffffffffffffff166106c1610672565b73ffffffffffffffffffffffffffffffffffffffff1614610717576040517f08c379a000000000000000000000000000000000000000000000000000000000815260040161070e90611c2d565b60405180910390fd5b6000600460008473ffffffffffffffffffffffffffffffffffffffff1673ffffffffffffffffffffffffffffffffffffffff16815260200190815260200160002054141561079a576040517f08c379a000000000000000000000000000000000000000000000000000000000815260040161079190611bed565b60405180910390fd5b80600560008473ffffffffffffffffffffffffffffffffffffffff1673ffffffffffffffffffffffffffffffffffffffff16815260200190815260200160002060006101000a81548160ff0219169083151502179055507fe1ceb8c32031f9be884892c03cac438c6f9d5eedeaed79300a0ec3225f7a66f18282604051610822929190611b29565b60405180910390a15050565b600080600060015411610876576040517f08c379a000000000000000000000000000000000000000000000000000000000815260040161086d90611bcd565b60405180910390fd5b6000336002546001436108899190611d18565b4060001c60405160200161089f93929190611a55565b6040516020818303038152906040528051906020012060001c90506000600190505b6001548111610a9f57600560006003600084815260200190815260200160002060020160009054906101000a900473ffffffffffffffffffffffffffffffffffffffff1673ffffffffffffffffffffffffffffffffffffffff1673ffffffffffffffffffffffffffffffffffffffff16815260200190815260200160002060009054906101000a900460ff1661095657610a8c565b6000806000610a086003600086815260200190815260200160002060020160009054906101000a900473ffffffffffffffffffffffffffffffffffffffff166003600087815260200190815260200160002060000160009054906101000a900473ffffffffffffffffffffffffffffffffffffffff166003600088815260200190815260200160002060010160009054906101000a900473ffffffffffffffffffffffffffffffffffffffff166112fe565b9250925092506000604989610a1d9190611cc2565b8385610a299190611cc2565b610a339190611e35565b90508086610a419190611cc2565b95506003600086815260200190815260200160002060030154821115610a875786610a6b57600196505b8160036000878152602001908152602001600020600301819055505b505050505b8080610a9790611dbe565b9150506108c1565b508381610aac9190611e35565b92503383604051602001610ac1929190611a29565b6040516020818303038152906040528051906020012060001c6002819055503373ffffffffffffffffffffffffffffffffffffffff167fe67ca81bebec5e7bdb46360f006e87ae045476c3f20b92d43c142ce57ede0bd884604051610b269190611c6d565b60405180910390a250915091565b60036020528060005260406000206000915090508060000160009054906101000a900473ffffffffffffffffffffffffffffffffffffffff16908060010160009054906101000a900473ffffffffffffffffffffffffffffffffffffffff16908060020160009054906101000a900473ffffffffffffffffffffffffffffffffffffffff16908060030154905084565b610bcc611418565b73ffffffffffffffffffffffffffffffffffffffff16610bea610672565b73ffffffffffffffffffffffffffffffffffffffff1614610c40576040517f08c379a0000000000000000000000000000000000000000000000000000000008152600401610c3790611c2d565b60405180910390fd5b6103e88173ffffffffffffffffffffffffffffffffffffffff1663ba9a7a566040518163ffffffff1660e01b815260040160206040518083038186803b158015610c8957600080fd5b505afa158015610c9d573d6000803e3d6000fd5b505050506040513d601f19601f82011682018060405250810190610cc191906116e7565b14610d01576040517f08c379a0000000000000000000000000000000000000000000000000000000008152600401610cf890611b8d565b60405180910390fd5b6000600460008373ffffffffffffffffffffffffffffffffffffffff1673ffffffffffffffffffffffffffffffffffffffff1681526020019081526020016000205414610d83576040517f08c379a0000000000000000000000000000000000000000000000000000000008152600401610d7a90611c0d565b60405180910390fd5b6001806000828254610d959190611cc2565b9250508190555060405180608001604052808273ffffffffffffffffffffffffffffffffffffffff16630dfe16816040518163ffffffff1660e01b815260040160206040518083038186803b158015610ded57600080fd5b505afa158015610e01573d6000803e3d6000fd5b505050506040513d601f19601f82011682018060405250810190610e25919061160a565b73ffffffffffffffffffffffffffffffffffffffff1681526020018273ffffffffffffffffffffffffffffffffffffffff1663d21220a76040518163ffffffff1660e01b815260040160206040518083038186803b158015610e8657600080fd5b505afa158015610e9a573d6000803e3d6000fd5b505050506040513d601f19601f82011682018060405250810190610ebe919061160a565b73ffffffffffffffffffffffffffffffffffffffff1681526020018273ffffffffffffffffffffffffffffffffffffffff168152602001600081525060036000600154815260200190815260200160002060008201518160000160006101000a81548173ffffffffffffffffffffffffffffffffffffffff021916908373ffffffffffffffffffffffffffffffffffffffff16021790555060208201518160010160006101000a81548173ffffffffffffffffffffffffffffffffffffffff021916908373ffffffffffffffffffffffffffffffffffffffff16021790555060408201518160020160006101000a81548173ffffffffffffffffffffffffffffffffffffffff021916908373ffffffffffffffffffffffffffffffffffffffff16021790555060608201518160030155905050600154600460008373ffffffffffffffffffffffffffffffffffffffff1673ffffffffffffffffffffffffffffffffffffffff168152602001908152602001600020819055506001600560008373ffffffffffffffffffffffffffffffffffffffff1673ffffffffffffffffffffffffffffffffffffffff16815260200190815260200160002060006101000a81548160ff0219169083151502179055507f7f46075c67ca5bbd3aaf82d8e324282141f27b7cba3376e5498a6b70c9931c2a8160036000600154815260200190815260200160002060000160009054906101000a900473ffffffffffffffffffffffffffffffffffffffff1660036000600154815260200190815260200160002060010160009054906101000a900473ffffffffffffffffffffffffffffffffffffffff1660405161113293929190611aad565b60405180910390a150565b60046020528060005260406000206000915090505481565b61115d611418565b73ffffffffffffffffffffffffffffffffffffffff1661117b610672565b73ffffffffffffffffffffffffffffffffffffffff16146111d1576040517f08c379a00000000000000000000000000000000000000000000000000000000081526004016111c890611c2d565b60405180910390fd5b600073ffffffffffffffffffffffffffffffffffffffff168173ffffffffffffffffffffffffffffffffffffffff161415611241576040517f08c379a000000000000000000000000000000000000000000000000000000000815260040161123890611b6d565b60405180910390fd5b8073ffffffffffffffffffffffffffffffffffffffff1660008054906101000a900473ffffffffffffffffffffffffffffffffffffffff1673ffffffffffffffffffffffffffffffffffffffff167f8be0079c531659141344cd1fd0a4f28419497f9722a3daafe3b4186f6b6457e060405160405180910390a3806000806101000a81548173ffffffffffffffffffffffffffffffffffffffff021916908373ffffffffffffffffffffffffffffffffffffffff16021790555050565b60008060008061130e8686611420565b50905060008060008973ffffffffffffffffffffffffffffffffffffffff16630902f1ac6040518163ffffffff1660e01b815260040160606040518083038186803b15801561135c57600080fd5b505afa158015611370573d6000803e3d6000fd5b505050506040513d601f19601f82011682018060405250810190611394919061166f565b63ffffffff1692506dffffffffffffffffffffffffffff1692506dffffffffffffffffffffffffffff1692508373ffffffffffffffffffffffffffffffffffffffff168973ffffffffffffffffffffffffffffffffffffffff16146113fb578183826113ff565b8282825b8097508198508299505050505050505093509350939050565b600033905090565b6000808273ffffffffffffffffffffffffffffffffffffffff168473ffffffffffffffffffffffffffffffffffffffff161415611492576040517f08c379a000000000000000000000000000000000000000000000000000000000815260040161148990611bad565b60405180910390fd5b8273ffffffffffffffffffffffffffffffffffffffff168473ffffffffffffffffffffffffffffffffffffffff16106114cc5782846114cf565b83835b8092508193505050600073ffffffffffffffffffffffffffffffffffffffff168273ffffffffffffffffffffffffffffffffffffffff161415611547576040517f08c379a000000000000000000000000000000000000000000000000000000000815260040161153e90611c4d565b60405180910390fd5b9250929050565b60008135905061155d81611ed1565b92915050565b60008151905061157281611ed1565b92915050565b60008135905061158781611ee8565b92915050565b60008151905061159c81611eff565b92915050565b6000813590506115b181611f16565b92915050565b6000815190506115c681611f16565b92915050565b6000815190506115db81611f2d565b92915050565b6000602082840312156115f357600080fd5b60006116018482850161154e565b91505092915050565b60006020828403121561161c57600080fd5b600061162a84828501611563565b91505092915050565b6000806040838503121561164657600080fd5b60006116548582860161154e565b925050602061166585828601611578565b9150509250929050565b60008060006060848603121561168457600080fd5b60006116928682870161158d565b93505060206116a38682870161158d565b92505060406116b4868287016115cc565b9150509250925092565b6000602082840312156116d057600080fd5b60006116de848285016115a2565b91505092915050565b6000602082840312156116f957600080fd5b6000611707848285016115b7565b91505092915050565b61171981611d4c565b82525050565b61173061172b82611d4c565b611e07565b82525050565b61173f81611d5e565b82525050565b6000611752602683611cb1565b91507f4f776e61626c653a206e6577206f776e657220697320746865207a65726f206160008301527f64647265737300000000000000000000000000000000000000000000000000006020830152604082019050919050565b60006117b8601e83611cb1565b91507f496e76616c6964207061697220616464726573732070726f76696465642e00006000830152602082019050919050565b60006117f8602583611cb1565b91507f556e697377617056324c6962726172793a204944454e544943414c5f4144445260008301527f45535345530000000000000000000000000000000000000000000000000000006020830152604082019050919050565b600061185e603383611cb1565b91507f4e6f20556e697377617020706169727320617661696c61626c6520746f20647260008301527f61772072616e646f6d6e6573732066726f6d2e000000000000000000000000006020830152604082019050919050565b60006118c4603783611cb1565b91507f43616e6e6f74206368616e67652074686520737461747573206f66206120706160008301527f6972207468617420646f6573206e6f742065786973742e0000000000000000006020830152604082019050919050565b600061192a603083611cb1565b91507f54686973207061697220616c726561647920657869737473206173206120726160008301527f6e646f6d6e65737320736f757263652e000000000000000000000000000000006020830152604082019050919050565b6000611990602083611cb1565b91507f4f776e61626c653a2063616c6c6572206973206e6f7420746865206f776e65726000830152602082019050919050565b60006119d0601e83611cb1565b91507f556e697377617056324c6962726172793a205a45524f5f4144445245535300006000830152602082019050919050565b611a0c81611da4565b82525050565b611a23611a1e82611da4565b611e2b565b82525050565b6000611a35828561171f565b601482019150611a458284611a12565b6020820191508190509392505050565b6000611a61828661171f565b601482019150611a718285611a12565b602082019150611a818284611a12565b602082019150819050949350505050565b6000602082019050611aa76000830184611710565b92915050565b6000606082019050611ac26000830186611710565b611acf6020830185611710565b611adc6040830184611710565b949350505050565b6000608082019050611af96000830187611710565b611b066020830186611710565b611b136040830185611710565b611b206060830184611a03565b95945050505050565b6000604082019050611b3e6000830185611710565b611b4b6020830184611736565b9392505050565b6000602082019050611b676000830184611736565b92915050565b60006020820190508181036000830152611b8681611745565b9050919050565b60006020820190508181036000830152611ba6816117ab565b9050919050565b60006020820190508181036000830152611bc6816117eb565b9050919050565b60006020820190508181036000830152611be681611851565b9050919050565b60006020820190508181036000830152611c06816118b7565b9050919050565b60006020820190508181036000830152611c268161191d565b9050919050565b60006020820190508181036000830152611c4681611983565b9050919050565b60006020820190508181036000830152611c66816119c3565b9050919050565b6000602082019050611c826000830184611a03565b92915050565b6000604082019050611c9d6000830185611a03565b611caa6020830184611736565b9392505050565b600082825260208201905092915050565b6000611ccd82611da4565b9150611cd883611da4565b9250827fffffffffffffffffffffffffffffffffffffffffffffffffffffffffffffffff03821115611d0d57611d0c611e66565b5b828201905092915050565b6000611d2382611da4565b9150611d2e83611da4565b925082821015611d4157611d40611e66565b5b828203905092915050565b6000611d5782611d84565b9050919050565b60008115159050919050565b60006dffffffffffffffffffffffffffff82169050919050565b600073ffffffffffffffffffffffffffffffffffffffff82169050919050565b6000819050919050565b600063ffffffff82169050919050565b6000611dc982611da4565b91507fffffffffffffffffffffffffffffffffffffffffffffffffffffffffffffffff821415611dfc57611dfb611e66565b5b600182019050919050565b6000611e1282611e19565b9050919050565b6000611e2482611ec4565b9050919050565b6000819050919050565b6000611e4082611da4565b9150611e4b83611da4565b925082611e5b57611e5a611e95565b5b828206905092915050565b7f4e487b7100000000000000000000000000000000000000000000000000000000600052601160045260246000fd5b7f4e487b7100000000000000000000000000000000000000000000000000000000600052601260045260246000fd5b60008160601b9050919050565b611eda81611d4c565b8114611ee557600080fd5b50565b611ef181611d5e565b8114611efc57600080fd5b50565b611f0881611d6a565b8114611f1357600080fd5b50565b611f1f81611da4565b8114611f2a57600080fd5b50565b611f3681611dae565b8114611f4157600080fd5b5056fea264697066735822122047088a17b9992f6fe266d11b6f14f7a0e83b1f4d5a346d453a7fc05d30ef0e7764736f6c63430008000033",
  "linkReferences": {},
  "deployedLinkReferences": {}
}