{
  "_format": "hh-sol-artifact-1",
  "contractName": "DexRNG",
  "sourceName": "contracts/DexRNG.sol",
  "abi": [
    {
      "inputs": [],
      "stateMutability": "nonpayable",
      "type": "constructor"
    },
    {
      "anonymous": false,
      "inputs": [
        {
          "indexed": true,
          "internalType": "address",
          "name": "previousOwner",
          "type": "address"
        },
        {
          "indexed": true,
          "internalType": "address",
          "name": "newOwner",
          "type": "address"
        }
      ],
      "name": "OwnershipTransferred",
      "type": "event"
    },
    {
      "anonymous": false,
      "inputs": [
        {
          "indexed": false,
          "internalType": "address",
          "name": "pair",
          "type": "address"
        },
        {
          "indexed": false,
          "internalType": "address",
          "name": "tokenA",
          "type": "address"
        },
        {
          "indexed": false,
          "internalType": "address",
          "name": "tokenB",
          "type": "address"
        }
      ],
      "name": "PairAdded",
      "type": "event"
    },
    {
      "anonymous": false,
      "inputs": [
        {
          "indexed": false,
          "internalType": "address",
          "name": "pair",
          "type": "address"
        },
        {
          "indexed": false,
          "internalType": "bool",
          "name": "active",
          "type": "bool"
        }
      ],
      "name": "PairStatusUpdated",
      "type": "event"
    },
    {
      "anonymous": false,
      "inputs": [
        {
          "indexed": true,
          "internalType": "address",
          "name": "requester",
          "type": "address"
        },
        {
          "indexed": false,
          "internalType": "uint256",
          "name": "randomNumber",
          "type": "uint256"
        }
      ],
      "name": "RandomNumber",
      "type": "event"
    },
    {
      "inputs": [
        {
          "internalType": "address",
          "name": "",
          "type": "address"
        }
      ],
      "name": "active",
      "outputs": [
        {
          "internalType": "bool",
          "name": "",
          "type": "bool"
        }
      ],
      "stateMutability": "view",
      "type": "function"
    },
    {
      "inputs": [
        {
          "internalType": "address",
          "name": "pair",
          "type": "address"
        }
      ],
      "name": "addPair",
      "outputs": [],
      "stateMutability": "nonpayable",
      "type": "function"
    },
    {
      "inputs": [
        {
          "internalType": "uint256",
          "name": "",
          "type": "uint256"
        }
      ],
      "name": "blockEntropy",
      "outputs": [
        {
          "internalType": "bool",
          "name": "",
          "type": "bool"
        }
      ],
      "stateMutability": "view",
      "type": "function"
    },
    {
      "inputs": [
        {
          "internalType": "address",
          "name": "pair",
          "type": "address"
        },
        {
          "internalType": "bool",
          "name": "activeStatus",
          "type": "bool"
        }
      ],
      "name": "changePairStatus",
      "outputs": [],
      "stateMutability": "nonpayable",
      "type": "function"
    },
    {
      "inputs": [],
      "name": "currentPairIndex",
      "outputs": [
        {
          "internalType": "uint256",
          "name": "",
          "type": "uint256"
        }
      ],
      "stateMutability": "view",
      "type": "function"
    },
    {
      "inputs": [
        {
          "internalType": "uint256",
          "name": "range",
          "type": "uint256"
        }
      ],
      "name": "getRandomNumber",
      "outputs": [
        {
          "internalType": "uint256",
          "name": "randomNumber",
          "type": "uint256"
        },
        {
          "internalType": "bool",
          "name": "acceptableEntropy",
          "type": "bool"
        }
      ],
      "stateMutability": "nonpayable",
      "type": "function"
    },
    {
      "inputs": [],
      "name": "owner",
      "outputs": [
        {
          "internalType": "address",
          "name": "",
          "type": "address"
        }
      ],
      "stateMutability": "view",
      "type": "function"
    },
    {
      "inputs": [
        {
          "internalType": "address",
          "name": "",
          "type": "address"
        }
      ],
      "name": "pairIndex",
      "outputs": [
        {
          "internalType": "uint256",
          "name": "",
          "type": "uint256"
        }
      ],
      "stateMutability": "view",
      "type": "function"
    },
    {
      "inputs": [
        {
          "internalType": "uint256",
          "name": "",
          "type": "uint256"
        }
      ],
      "name": "pairs",
      "outputs": [
        {
          "internalType": "address",
          "name": "tokenA",
          "type": "address"
        },
        {
          "internalType": "address",
          "name": "tokenB",
          "type": "address"
        },
        {
          "internalType": "address",
          "name": "pair",
          "type": "address"
        },
        {
          "internalType": "uint256",
          "name": "lastUpdateTimeStamp",
          "type": "uint256"
        }
      ],
      "stateMutability": "view",
      "type": "function"
    },
    {
      "inputs": [],
      "name": "renounceOwnership",
      "outputs": [],
      "stateMutability": "nonpayable",
      "type": "function"
    },
    {
      "inputs": [
        {
          "internalType": "address",
          "name": "newOwner",
          "type": "address"
        }
      ],
      "name": "transferOwnership",
      "outputs": [],
      "stateMutability": "nonpayable",
      "type": "function"
    },
    {
      "inputs": [
        {
          "internalType": "uint256",
          "name": "range",
          "type": "uint256"
        }
      ],
      "name": "viewRandomNumber",
      "outputs": [
        {
          "internalType": "uint256",
          "name": "randomNumber",
          "type": "uint256"
        }
      ],
      "stateMutability": "view",
      "type": "function"
    }
  ],
  "bytecode": "0x608060405234801561001057600080fd5b5060006100216100c460201b60201c565b9050806000806101000a81548173ffffffffffffffffffffffffffffffffffffffff021916908373ffffffffffffffffffffffffffffffffffffffff1602179055508073ffffffffffffffffffffffffffffffffffffffff16600073ffffffffffffffffffffffffffffffffffffffff167f8be0079c531659141344cd1fd0a4f28419497f9722a3daafe3b4186f6b6457e060405160405180910390a3506100cc565b600033905090565b612025806100db6000396000f3fe608060405234801561001057600080fd5b50600436106100b45760003560e01c8063b37217a411610071578063b37217a41461017b578063b561bb31146101ac578063b91ac788146101dc578063c2b7bbb61461020f578063e15195511461022b578063f2fde38b1461025b576100b4565b8063428307c5146100b95780634ea71327146100e95780636176593d14610119578063715018a6146101375780638da5cb5b14610141578063aeb22dbb1461015f575b600080fd5b6100d360048036038101906100ce9190611769565b610277565b6040516100e09190611d18565b60405180910390f35b61010360048036038101906100fe919061168c565b61054d565b6040516101109190611bfd565b60405180910390f35b61012161056d565b60405161012e9190611d18565b60405180910390f35b61013f610573565b005b6101496106ad565b6040516101569190611b3d565b60405180910390f35b610179600480360381019061017491906116de565b6106d6565b005b61019560048036038101906101909190611769565b610869565b6040516101a3929190611d33565b60405180910390f35b6101c660048036038101906101c19190611769565b610bbf565b6040516101d39190611bfd565b60405180910390f35b6101f660048036038101906101f19190611769565b610bdf565b6040516102069493929190611b8f565b60405180910390f35b6102296004803603810190610224919061168c565b610c6f565b005b6102456004803603810190610240919061168c565b6111e8565b6040516102529190611d18565b60405180910390f35b6102756004803603810190610270919061168c565b611200565b005b600080600154116102bd576040517f08c379a00000000000000000000000000000000000000000000000000000000081526004016102b490611c78565b60405180910390fd5b6000336002546001436102d09190611dc3565b4060001c6040516020016102e693929190611b00565b6040516020818303038152906040528051906020012060001c90506000600190505b60015481101561053857600560006003600084815260200190815260200160002060020160009054906101000a900473ffffffffffffffffffffffffffffffffffffffff1673ffffffffffffffffffffffffffffffffffffffff1673ffffffffffffffffffffffffffffffffffffffff16815260200190815260200160002060009054906101000a900460ff1661039e57610525565b6000600360008381526020019081526020016000206040518060800160405290816000820160009054906101000a900473ffffffffffffffffffffffffffffffffffffffff1673ffffffffffffffffffffffffffffffffffffffff1673ffffffffffffffffffffffffffffffffffffffff1681526020016001820160009054906101000a900473ffffffffffffffffffffffffffffffffffffffff1673ffffffffffffffffffffffffffffffffffffffff1673ffffffffffffffffffffffffffffffffffffffff1681526020016002820160009054906101000a900473ffffffffffffffffffffffffffffffffffffffff1673ffffffffffffffffffffffffffffffffffffffff1673ffffffffffffffffffffffffffffffffffffffff16815260200160038201548152505090506000806104e68360400151846000015185602001516113a9565b509150915060006049886104fa9190611d6d565b82846105069190611d6d565b6105109190611ee0565b9050808661051e9190611d6d565b9550505050505b808061053090611e69565b915050610308565b5082816105459190611ee0565b915050919050565b60056020528060005260406000206000915054906101000a900460ff1681565b60015481565b61057b6114c3565b73ffffffffffffffffffffffffffffffffffffffff166105996106ad565b73ffffffffffffffffffffffffffffffffffffffff16146105ef576040517f08c379a00000000000000000000000000000000000000000000000000000000081526004016105e690611cd8565b60405180910390fd5b600073ffffffffffffffffffffffffffffffffffffffff1660008054906101000a900473ffffffffffffffffffffffffffffffffffffffff1673ffffffffffffffffffffffffffffffffffffffff167f8be0079c531659141344cd1fd0a4f28419497f9722a3daafe3b4186f6b6457e060405160405180910390a360008060006101000a81548173ffffffffffffffffffffffffffffffffffffffff021916908373ffffffffffffffffffffffffffffffffffffffff160217905550565b60008060009054906101000a900473ffffffffffffffffffffffffffffffffffffffff16905090565b6106de6114c3565b73ffffffffffffffffffffffffffffffffffffffff166106fc6106ad565b73ffffffffffffffffffffffffffffffffffffffff1614610752576040517f08c379a000000000000000000000000000000000000000000000000000000000815260040161074990611cd8565b60405180910390fd5b6000600460008473ffffffffffffffffffffffffffffffffffffffff1673ffffffffffffffffffffffffffffffffffffffff1681526020019081526020016000205414156107d5576040517f08c379a00000000000000000000000000000000000000000000000000000000081526004016107cc90611c98565b60405180910390fd5b80600560008473ffffffffffffffffffffffffffffffffffffffff1673ffffffffffffffffffffffffffffffffffffffff16815260200190815260200160002060006101000a81548160ff0219169083151502179055507fe1ceb8c32031f9be884892c03cac438c6f9d5eedeaed79300a0ec3225f7a66f1828260405161085d929190611bd4565b60405180910390a15050565b6000806000600154116108b1576040517f08c379a00000000000000000000000000000000000000000000000000000000081526004016108a890611c78565b60405180910390fd5b6006600043815260200190815260200160002060009054906101000a900460ff1690506000336002546001436108e79190611dc3565b4060001c6040516020016108fd93929190611b00565b6040516020818303038152906040528051906020012060001c90506000600190505b6001548111610b2a57600560006003600084815260200190815260200160002060020160009054906101000a900473ffffffffffffffffffffffffffffffffffffffff1673ffffffffffffffffffffffffffffffffffffffff1673ffffffffffffffffffffffffffffffffffffffff16815260200190815260200160002060009054906101000a900460ff166109b457610b17565b6000806000610a666003600086815260200190815260200160002060020160009054906101000a900473ffffffffffffffffffffffffffffffffffffffff166003600087815260200190815260200160002060000160009054906101000a900473ffffffffffffffffffffffffffffffffffffffff166003600088815260200190815260200160002060010160009054906101000a900473ffffffffffffffffffffffffffffffffffffffff166113a9565b925092509250600088600254610a7c9190611ee0565b8385610a889190611d6d565b610a929190611ee0565b90508086610aa09190611d6d565b95506003600086815260200190815260200160002060030154821115610b125786610af6576001965060016006600043815260200190815260200160002060006101000a81548160ff0219169083151502179055505b8160036000878152602001908152602001600020600301819055505b505050505b8080610b2290611e69565b91505061091f565b508381610b379190611ee0565b92503383604051602001610b4c929190611ad4565b6040516020818303038152906040528051906020012060001c6002819055503373ffffffffffffffffffffffffffffffffffffffff167fe67ca81bebec5e7bdb46360f006e87ae045476c3f20b92d43c142ce57ede0bd884604051610bb19190611d18565b60405180910390a250915091565b60066020528060005260406000206000915054906101000a900460ff1681565b60036020528060005260406000206000915090508060000160009054906101000a900473ffffffffffffffffffffffffffffffffffffffff16908060010160009054906101000a900473ffffffffffffffffffffffffffffffffffffffff16908060020160009054906101000a900473ffffffffffffffffffffffffffffffffffffffff16908060030154905084565b610c776114c3565b73ffffffffffffffffffffffffffffffffffffffff16610c956106ad565b73ffffffffffffffffffffffffffffffffffffffff1614610ceb576040517f08c379a0000000000000000000000000000000000000000000000000000000008152600401610ce290611cd8565b60405180910390fd5b6103e88173ffffffffffffffffffffffffffffffffffffffff1663ba9a7a566040518163ffffffff1660e01b815260040160206040518083038186803b158015610d3457600080fd5b505afa158015610d48573d6000803e3d6000fd5b505050506040513d601f19601f82011682018060405250810190610d6c9190611792565b14610dac576040517f08c379a0000000000000000000000000000000000000000000000000000000008152600401610da390611c38565b60405180910390fd5b6000600460008373ffffffffffffffffffffffffffffffffffffffff1673ffffffffffffffffffffffffffffffffffffffff1681526020019081526020016000205414610e2e576040517f08c379a0000000000000000000000000000000000000000000000000000000008152600401610e2590611cb8565b60405180910390fd5b6001806000828254610e409190611d6d565b9250508190555060405180608001604052808273ffffffffffffffffffffffffffffffffffffffff16630dfe16816040518163ffffffff1660e01b815260040160206040518083038186803b158015610e9857600080fd5b505afa158015610eac573d6000803e3d6000fd5b505050506040513d601f19601f82011682018060405250810190610ed091906116b5565b73ffffffffffffffffffffffffffffffffffffffff1681526020018273ffffffffffffffffffffffffffffffffffffffff1663d21220a76040518163ffffffff1660e01b815260040160206040518083038186803b158015610f3157600080fd5b505afa158015610f45573d6000803e3d6000fd5b505050506040513d601f19601f82011682018060405250810190610f6991906116b5565b73ffffffffffffffffffffffffffffffffffffffff1681526020018273ffffffffffffffffffffffffffffffffffffffff168152602001600081525060036000600154815260200190815260200160002060008201518160000160006101000a81548173ffffffffffffffffffffffffffffffffffffffff021916908373ffffffffffffffffffffffffffffffffffffffff16021790555060208201518160010160006101000a81548173ffffffffffffffffffffffffffffffffffffffff021916908373ffffffffffffffffffffffffffffffffffffffff16021790555060408201518160020160006101000a81548173ffffffffffffffffffffffffffffffffffffffff021916908373ffffffffffffffffffffffffffffffffffffffff16021790555060608201518160030155905050600154600460008373ffffffffffffffffffffffffffffffffffffffff1673ffffffffffffffffffffffffffffffffffffffff168152602001908152602001600020819055506001600560008373ffffffffffffffffffffffffffffffffffffffff1673ffffffffffffffffffffffffffffffffffffffff16815260200190815260200160002060006101000a81548160ff0219169083151502179055507f7f46075c67ca5bbd3aaf82d8e324282141f27b7cba3376e5498a6b70c9931c2a8160036000600154815260200190815260200160002060000160009054906101000a900473ffffffffffffffffffffffffffffffffffffffff1660036000600154815260200190815260200160002060010160009054906101000a900473ffffffffffffffffffffffffffffffffffffffff166040516111dd93929190611b58565b60405180910390a150565b60046020528060005260406000206000915090505481565b6112086114c3565b73ffffffffffffffffffffffffffffffffffffffff166112266106ad565b73ffffffffffffffffffffffffffffffffffffffff161461127c576040517f08c379a000000000000000000000000000000000000000000000000000000000815260040161127390611cd8565b60405180910390fd5b600073ffffffffffffffffffffffffffffffffffffffff168173ffffffffffffffffffffffffffffffffffffffff1614156112ec576040517f08c379a00000000000000000000000000000000000000000000000000000000081526004016112e390611c18565b60405180910390fd5b8073ffffffffffffffffffffffffffffffffffffffff1660008054906101000a900473ffffffffffffffffffffffffffffffffffffffff1673ffffffffffffffffffffffffffffffffffffffff167f8be0079c531659141344cd1fd0a4f28419497f9722a3daafe3b4186f6b6457e060405160405180910390a3806000806101000a81548173ffffffffffffffffffffffffffffffffffffffff021916908373ffffffffffffffffffffffffffffffffffffffff16021790555050565b6000806000806113b986866114cb565b50905060008060008973ffffffffffffffffffffffffffffffffffffffff16630902f1ac6040518163ffffffff1660e01b815260040160606040518083038186803b15801561140757600080fd5b505afa15801561141b573d6000803e3d6000fd5b505050506040513d601f19601f8201168201806040525081019061143f919061171a565b63ffffffff1692506dffffffffffffffffffffffffffff1692506dffffffffffffffffffffffffffff1692508373ffffffffffffffffffffffffffffffffffffffff168973ffffffffffffffffffffffffffffffffffffffff16146114a6578183826114aa565b8282825b8097508198508299505050505050505093509350939050565b600033905090565b6000808273ffffffffffffffffffffffffffffffffffffffff168473ffffffffffffffffffffffffffffffffffffffff16141561153d576040517f08c379a000000000000000000000000000000000000000000000000000000000815260040161153490611c58565b60405180910390fd5b8273ffffffffffffffffffffffffffffffffffffffff168473ffffffffffffffffffffffffffffffffffffffff161061157757828461157a565b83835b8092508193505050600073ffffffffffffffffffffffffffffffffffffffff168273ffffffffffffffffffffffffffffffffffffffff1614156115f2576040517f08c379a00000000000000000000000000000000000000000000000000000000081526004016115e990611cf8565b60405180910390fd5b9250929050565b60008135905061160881611f7c565b92915050565b60008151905061161d81611f7c565b92915050565b60008135905061163281611f93565b92915050565b60008151905061164781611faa565b92915050565b60008135905061165c81611fc1565b92915050565b60008151905061167181611fc1565b92915050565b60008151905061168681611fd8565b92915050565b60006020828403121561169e57600080fd5b60006116ac848285016115f9565b91505092915050565b6000602082840312156116c757600080fd5b60006116d58482850161160e565b91505092915050565b600080604083850312156116f157600080fd5b60006116ff858286016115f9565b925050602061171085828601611623565b9150509250929050565b60008060006060848603121561172f57600080fd5b600061173d86828701611638565b935050602061174e86828701611638565b925050604061175f86828701611677565b9150509250925092565b60006020828403121561177b57600080fd5b60006117898482850161164d565b91505092915050565b6000602082840312156117a457600080fd5b60006117b284828501611662565b91505092915050565b6117c481611df7565b82525050565b6117db6117d682611df7565b611eb2565b82525050565b6117ea81611e09565b82525050565b60006117fd602683611d5c565b91507f4f776e61626c653a206e6577206f776e657220697320746865207a65726f206160008301527f64647265737300000000000000000000000000000000000000000000000000006020830152604082019050919050565b6000611863601e83611d5c565b91507f496e76616c6964207061697220616464726573732070726f76696465642e00006000830152602082019050919050565b60006118a3602583611d5c565b91507f556e697377617056324c6962726172793a204944454e544943414c5f4144445260008301527f45535345530000000000000000000000000000000000000000000000000000006020830152604082019050919050565b6000611909603383611d5c565b91507f4e6f20556e697377617020706169727320617661696c61626c6520746f20647260008301527f61772072616e646f6d6e6573732066726f6d2e000000000000000000000000006020830152604082019050919050565b600061196f603783611d5c565b91507f43616e6e6f74206368616e67652074686520737461747573206f66206120706160008301527f6972207468617420646f6573206e6f742065786973742e0000000000000000006020830152604082019050919050565b60006119d5603083611d5c565b91507f54686973207061697220616c726561647920657869737473206173206120726160008301527f6e646f6d6e65737320736f757263652e000000000000000000000000000000006020830152604082019050919050565b6000611a3b602083611d5c565b91507f4f776e61626c653a2063616c6c6572206973206e6f7420746865206f776e65726000830152602082019050919050565b6000611a7b601e83611d5c565b91507f556e697377617056324c6962726172793a205a45524f5f4144445245535300006000830152602082019050919050565b611ab781611e4f565b82525050565b611ace611ac982611e4f565b611ed6565b82525050565b6000611ae082856117ca565b601482019150611af08284611abd565b6020820191508190509392505050565b6000611b0c82866117ca565b601482019150611b1c8285611abd565b602082019150611b2c8284611abd565b602082019150819050949350505050565b6000602082019050611b5260008301846117bb565b92915050565b6000606082019050611b6d60008301866117bb565b611b7a60208301856117bb565b611b8760408301846117bb565b949350505050565b6000608082019050611ba460008301876117bb565b611bb160208301866117bb565b611bbe60408301856117bb565b611bcb6060830184611aae565b95945050505050565b6000604082019050611be960008301856117bb565b611bf660208301846117e1565b9392505050565b6000602082019050611c1260008301846117e1565b92915050565b60006020820190508181036000830152611c31816117f0565b9050919050565b60006020820190508181036000830152611c5181611856565b9050919050565b60006020820190508181036000830152611c7181611896565b9050919050565b60006020820190508181036000830152611c91816118fc565b9050919050565b60006020820190508181036000830152611cb181611962565b9050919050565b60006020820190508181036000830152611cd1816119c8565b9050919050565b60006020820190508181036000830152611cf181611a2e565b9050919050565b60006020820190508181036000830152611d1181611a6e565b9050919050565b6000602082019050611d2d6000830184611aae565b92915050565b6000604082019050611d486000830185611aae565b611d5560208301846117e1565b9392505050565b600082825260208201905092915050565b6000611d7882611e4f565b9150611d8383611e4f565b9250827fffffffffffffffffffffffffffffffffffffffffffffffffffffffffffffffff03821115611db857611db7611f11565b5b828201905092915050565b6000611dce82611e4f565b9150611dd983611e4f565b925082821015611dec57611deb611f11565b5b828203905092915050565b6000611e0282611e2f565b9050919050565b60008115159050919050565b60006dffffffffffffffffffffffffffff82169050919050565b600073ffffffffffffffffffffffffffffffffffffffff82169050919050565b6000819050919050565b600063ffffffff82169050919050565b6000611e7482611e4f565b91507fffffffffffffffffffffffffffffffffffffffffffffffffffffffffffffffff821415611ea757611ea6611f11565b5b600182019050919050565b6000611ebd82611ec4565b9050919050565b6000611ecf82611f6f565b9050919050565b6000819050919050565b6000611eeb82611e4f565b9150611ef683611e4f565b925082611f0657611f05611f40565b5b828206905092915050565b7f4e487b7100000000000000000000000000000000000000000000000000000000600052601160045260246000fd5b7f4e487b7100000000000000000000000000000000000000000000000000000000600052601260045260246000fd5b60008160601b9050919050565b611f8581611df7565b8114611f9057600080fd5b50565b611f9c81611e09565b8114611fa757600080fd5b50565b611fb381611e15565b8114611fbe57600080fd5b50565b611fca81611e4f565b8114611fd557600080fd5b50565b611fe181611e59565b8114611fec57600080fd5b5056fea264697066735822122055319626f8329e6385a25dcc9861a6d0ae37a9485493b594e74003e0ffbdccb164736f6c63430008000033",
  "linkReferences": {},
  "deployedLinkReferences": {}
}