{
  "_format": "hh-sol-artifact-1",
  "contractName": "RNGConsumer",
  "sourceName": "contracts/RNGConsumer.sol",
  "abi": [
    {
      "inputs": [
        {
          "internalType": "address",
          "name": "_dexRNG",
          "type": "address"
        }
      ],
      "stateMutability": "nonpayable",
      "type": "constructor"
    },
    {
      "anonymous": false,
      "inputs": [
        {
          "indexed": true,
          "internalType": "address",
          "name": "previousOwner",
          "type": "address"
        },
        {
          "indexed": true,
          "internalType": "address",
          "name": "newOwner",
          "type": "address"
        }
      ],
      "name": "OwnershipTransferred",
      "type": "event"
    },
    {
      "anonymous": false,
      "inputs": [
        {
          "indexed": false,
          "internalType": "uint256",
          "name": "randomNumber",
          "type": "uint256"
        }
      ],
      "name": "RandomNumber",
      "type": "event"
    },
    {
      "anonymous": false,
      "inputs": [
        {
          "indexed": false,
          "internalType": "address",
          "name": "bountyHunter",
          "type": "address"
        },
        {
          "indexed": false,
          "internalType": "uint256",
          "name": "randomNumber",
          "type": "uint256"
        }
      ],
      "name": "Success",
      "type": "event"
    },
    {
      "anonymous": false,
      "inputs": [
        {
          "indexed": false,
          "internalType": "address",
          "name": "bountyHunter",
          "type": "address"
        },
        {
          "indexed": false,
          "internalType": "uint256",
          "name": "randomNumber",
          "type": "uint256"
        }
      ],
      "name": "TryAgain",
      "type": "event"
    },
    {
      "inputs": [],
      "name": "acceptableEntropy",
      "outputs": [
        {
          "internalType": "bool",
          "name": "",
          "type": "bool"
        }
      ],
      "stateMutability": "view",
      "type": "function"
    },
    {
      "inputs": [],
      "name": "owner",
      "outputs": [
        {
          "internalType": "address",
          "name": "",
          "type": "address"
        }
      ],
      "stateMutability": "view",
      "type": "function"
    },
    {
      "inputs": [
        {
          "internalType": "uint256",
          "name": "predictedRandomNumber",
          "type": "uint256"
        }
      ],
      "name": "random",
      "outputs": [],
      "stateMutability": "nonpayable",
      "type": "function"
    },
    {
      "inputs": [],
      "name": "randomNumber",
      "outputs": [
        {
          "internalType": "uint256",
          "name": "",
          "type": "uint256"
        }
      ],
      "stateMutability": "view",
      "type": "function"
    },
    {
      "inputs": [],
      "name": "range",
      "outputs": [
        {
          "internalType": "uint256",
          "name": "",
          "type": "uint256"
        }
      ],
      "stateMutability": "view",
      "type": "function"
    },
    {
      "inputs": [],
      "name": "renounceOwnership",
      "outputs": [],
      "stateMutability": "nonpayable",
      "type": "function"
    },
    {
      "inputs": [
        {
          "internalType": "address",
          "name": "_dexRNG",
          "type": "address"
        }
      ],
      "name": "setdexRNG",
      "outputs": [],
      "stateMutability": "nonpayable",
      "type": "function"
    },
    {
      "inputs": [
        {
          "internalType": "address",
          "name": "newOwner",
          "type": "address"
        }
      ],
      "name": "transferOwnership",
      "outputs": [],
      "stateMutability": "nonpayable",
      "type": "function"
    }
  ],
  "bytecode": "0x6080604052606460015534801561001557600080fd5b50604051610c12380380610c1283398181016040528101906100379190610149565b600061004761012c60201b60201c565b9050806000806101000a81548173ffffffffffffffffffffffffffffffffffffffff021916908373ffffffffffffffffffffffffffffffffffffffff1602179055508073ffffffffffffffffffffffffffffffffffffffff16600073ffffffffffffffffffffffffffffffffffffffff167f8be0079c531659141344cd1fd0a4f28419497f9722a3daafe3b4186f6b6457e060405160405180910390a35080600360016101000a81548173ffffffffffffffffffffffffffffffffffffffff021916908373ffffffffffffffffffffffffffffffffffffffff160217905550506101bb565b600033905090565b600081519050610143816101a4565b92915050565b60006020828403121561015b57600080fd5b600061016984828501610134565b91505092915050565b600061017d82610184565b9050919050565b600073ffffffffffffffffffffffffffffffffffffffff82169050919050565b6101ad81610172565b81146101b857600080fd5b50565b610a48806101ca6000396000f3fe608060405234801561001057600080fd5b50600436106100885760003560e01c8063ccbac9f51161005b578063ccbac9f5146100ed578063d3501dd11461010b578063e97206a914610129578063f2fde38b1461014757610088565b8063715018a61461008d5780638da5cb5b14610097578063b863bd37146100b5578063be75aefb146100d1575b600080fd5b610095610163565b005b61009f61029d565b6040516100ac91906108ba565b60405180910390f35b6100cf60048036038101906100ca9190610782565b6102c6565b005b6100eb60048036038101906100e69190610759565b610475565b005b6100f5610535565b6040516101029190610959565b60405180910390f35b61011361053b565b60405161012091906108fe565b60405180910390f35b61013161054e565b60405161013e9190610959565b60405180910390f35b610161600480360381019061015c9190610759565b610554565b005b61016b6106fd565b73ffffffffffffffffffffffffffffffffffffffff1661018961029d565b73ffffffffffffffffffffffffffffffffffffffff16146101df576040517f08c379a00000000000000000000000000000000000000000000000000000000081526004016101d690610939565b60405180910390fd5b600073ffffffffffffffffffffffffffffffffffffffff1660008054906101000a900473ffffffffffffffffffffffffffffffffffffffff1673ffffffffffffffffffffffffffffffffffffffff167f8be0079c531659141344cd1fd0a4f28419497f9722a3daafe3b4186f6b6457e060405160405180910390a360008060006101000a81548173ffffffffffffffffffffffffffffffffffffffff021916908373ffffffffffffffffffffffffffffffffffffffff160217905550565b60008060009054906101000a900473ffffffffffffffffffffffffffffffffffffffff16905090565b600360019054906101000a900473ffffffffffffffffffffffffffffffffffffffff1673ffffffffffffffffffffffffffffffffffffffff1663b37217a46001546040518263ffffffff1660e01b81526004016103239190610959565b6040805180830381600087803b15801561033c57600080fd5b505af1158015610350573d6000803e3d6000fd5b505050506040513d601f19601f8201168201806040525081019061037491906107ab565b60026000600360008491906101000a81548160ff02191690831515021790555083919050555050600254811480156103b85750600360009054906101000a900460ff165b156103fd577fc56317b24992a55703014380badea37068147222bc9a17ee2cbf53795835f2ea336002546040516103f09291906108d5565b60405180910390a1610439565b7faf3576367d9342957e84cd99f7e65b2732155cfb3df39e53def6842d133e8722336002546040516104309291906108d5565b60405180910390a15b7fec6cdc8e735e4069f6e89062582f3e5532a8e71373e7ef2962fa916cf2af21f260025460405161046a9190610959565b60405180910390a150565b61047d6106fd565b73ffffffffffffffffffffffffffffffffffffffff1661049b61029d565b73ffffffffffffffffffffffffffffffffffffffff16146104f1576040517f08c379a00000000000000000000000000000000000000000000000000000000081526004016104e890610939565b60405180910390fd5b80600360016101000a81548173ffffffffffffffffffffffffffffffffffffffff021916908373ffffffffffffffffffffffffffffffffffffffff16021790555050565b60025481565b600360009054906101000a900460ff1681565b60015481565b61055c6106fd565b73ffffffffffffffffffffffffffffffffffffffff1661057a61029d565b73ffffffffffffffffffffffffffffffffffffffff16146105d0576040517f08c379a00000000000000000000000000000000000000000000000000000000081526004016105c790610939565b60405180910390fd5b600073ffffffffffffffffffffffffffffffffffffffff168173ffffffffffffffffffffffffffffffffffffffff161415610640576040517f08c379a000000000000000000000000000000000000000000000000000000000815260040161063790610919565b60405180910390fd5b8073ffffffffffffffffffffffffffffffffffffffff1660008054906101000a900473ffffffffffffffffffffffffffffffffffffffff1673ffffffffffffffffffffffffffffffffffffffff167f8be0079c531659141344cd1fd0a4f28419497f9722a3daafe3b4186f6b6457e060405160405180910390a3806000806101000a81548173ffffffffffffffffffffffffffffffffffffffff021916908373ffffffffffffffffffffffffffffffffffffffff16021790555050565b600033905090565b600081359050610714816109cd565b92915050565b600081519050610729816109e4565b92915050565b60008135905061073e816109fb565b92915050565b600081519050610753816109fb565b92915050565b60006020828403121561076b57600080fd5b600061077984828501610705565b91505092915050565b60006020828403121561079457600080fd5b60006107a28482850161072f565b91505092915050565b600080604083850312156107be57600080fd5b60006107cc85828601610744565b92505060206107dd8582860161071a565b9150509250929050565b6107f081610985565b82525050565b6107ff81610997565b82525050565b6000610812602683610974565b91507f4f776e61626c653a206e6577206f776e657220697320746865207a65726f206160008301527f64647265737300000000000000000000000000000000000000000000000000006020830152604082019050919050565b6000610878602083610974565b91507f4f776e61626c653a2063616c6c6572206973206e6f7420746865206f776e65726000830152602082019050919050565b6108b4816109c3565b82525050565b60006020820190506108cf60008301846107e7565b92915050565b60006040820190506108ea60008301856107e7565b6108f760208301846108ab565b9392505050565b600060208201905061091360008301846107f6565b92915050565b6000602082019050818103600083015261093281610805565b9050919050565b600060208201905081810360008301526109528161086b565b9050919050565b600060208201905061096e60008301846108ab565b92915050565b600082825260208201905092915050565b6000610990826109a3565b9050919050565b60008115159050919050565b600073ffffffffffffffffffffffffffffffffffffffff82169050919050565b6000819050919050565b6109d681610985565b81146109e157600080fd5b50565b6109ed81610997565b81146109f857600080fd5b50565b610a04816109c3565b8114610a0f57600080fd5b5056fea2646970667358221220a24ce8fca6312ae35e34a300f0f8fd1703be0538e3a07da90388826a4341b93a64736f6c63430008000033",
  "linkReferences": {},
  "deployedLinkReferences": {}
}