{
  "_format": "hh-sol-artifact-1",
  "contractName": "RNGConsumer",
  "sourceName": "contracts/RNGConsumer.sol",
  "abi": [
    {
      "inputs": [
        {
          "internalType": "address",
          "name": "_priceRNG",
          "type": "address"
        }
      ],
      "stateMutability": "nonpayable",
      "type": "constructor"
    },
    {
      "anonymous": false,
      "inputs": [
        {
          "indexed": true,
          "internalType": "address",
          "name": "previousOwner",
          "type": "address"
        },
        {
          "indexed": true,
          "internalType": "address",
          "name": "newOwner",
          "type": "address"
        }
      ],
      "name": "OwnershipTransferred",
      "type": "event"
    },
    {
      "anonymous": false,
      "inputs": [
        {
          "indexed": false,
          "internalType": "address",
          "name": "priceRNGAddress",
          "type": "address"
        }
      ],
      "name": "PriceRNGSet",
      "type": "event"
    },
    {
      "anonymous": false,
      "inputs": [
        {
          "indexed": false,
          "internalType": "uint256",
          "name": "randomNumber",
          "type": "uint256"
        }
      ],
      "name": "RandomNumber",
      "type": "event"
    },
    {
      "inputs": [],
      "name": "owner",
      "outputs": [
        {
          "internalType": "address",
          "name": "",
          "type": "address"
        }
      ],
      "stateMutability": "view",
      "type": "function"
    },
    {
      "inputs": [
        {
          "internalType": "uint256",
          "name": "range",
          "type": "uint256"
        }
      ],
      "name": "random",
      "outputs": [],
      "stateMutability": "nonpayable",
      "type": "function"
    },
    {
      "inputs": [],
      "name": "randomNumber",
      "outputs": [
        {
          "internalType": "uint256",
          "name": "",
          "type": "uint256"
        }
      ],
      "stateMutability": "view",
      "type": "function"
    },
    {
      "inputs": [],
      "name": "renounceOwnership",
      "outputs": [],
      "stateMutability": "nonpayable",
      "type": "function"
    },
    {
      "inputs": [
        {
          "internalType": "address",
          "name": "_priceRNG",
          "type": "address"
        }
      ],
      "name": "setPriceRNG",
      "outputs": [],
      "stateMutability": "nonpayable",
      "type": "function"
    },
    {
      "inputs": [
        {
          "internalType": "address",
          "name": "newOwner",
          "type": "address"
        }
      ],
      "name": "transferOwnership",
      "outputs": [],
      "stateMutability": "nonpayable",
      "type": "function"
    }
  ],
  "bytecode": "0x608060405234801561001057600080fd5b50604051610acc380380610acc8339818101604052810190610032919061017b565b600061004261015e60201b60201c565b9050806000806101000a81548173ffffffffffffffffffffffffffffffffffffffff021916908373ffffffffffffffffffffffffffffffffffffffff1602179055508073ffffffffffffffffffffffffffffffffffffffff16600073ffffffffffffffffffffffffffffffffffffffff167f8be0079c531659141344cd1fd0a4f28419497f9722a3daafe3b4186f6b6457e060405160405180910390a35080600260006101000a81548173ffffffffffffffffffffffffffffffffffffffff021916908373ffffffffffffffffffffffffffffffffffffffff1602179055507f23ae5a31e2aa4824e9777a9e5f55ba9e7cebb6d667de78328ddfcb3cb571e6a28160405161015091906101b3565b60405180910390a150610217565b600033905090565b60008151905061017581610200565b92915050565b60006020828403121561018d57600080fd5b600061019b84828501610166565b91505092915050565b6101ad816101ce565b82525050565b60006020820190506101c860008301846101a4565b92915050565b60006101d9826101e0565b9050919050565b600073ffffffffffffffffffffffffffffffffffffffff82169050919050565b610209816101ce565b811461021457600080fd5b50565b6108a6806102266000396000f3fe608060405234801561001057600080fd5b50600436106100625760003560e01c8063715018a6146100675780638da5cb5b14610071578063ab835b541461008f578063b863bd37146100ab578063ccbac9f5146100c7578063f2fde38b146100e5575b600080fd5b61006f610101565b005b61007961023b565b604051610086919061077f565b60405180910390f35b6100a960048036038101906100a49190610640565b610264565b005b6100c560048036038101906100c09190610669565b61035b565b005b6100cf61044a565b6040516100dc91906107da565b60405180910390f35b6100ff60048036038101906100fa9190610640565b610450565b005b6101096105f9565b73ffffffffffffffffffffffffffffffffffffffff1661012761023b565b73ffffffffffffffffffffffffffffffffffffffff161461017d576040517f08c379a0000000000000000000000000000000000000000000000000000000008152600401610174906107ba565b60405180910390fd5b600073ffffffffffffffffffffffffffffffffffffffff1660008054906101000a900473ffffffffffffffffffffffffffffffffffffffff1673ffffffffffffffffffffffffffffffffffffffff167f8be0079c531659141344cd1fd0a4f28419497f9722a3daafe3b4186f6b6457e060405160405180910390a360008060006101000a81548173ffffffffffffffffffffffffffffffffffffffff021916908373ffffffffffffffffffffffffffffffffffffffff160217905550565b60008060009054906101000a900473ffffffffffffffffffffffffffffffffffffffff16905090565b61026c6105f9565b73ffffffffffffffffffffffffffffffffffffffff1661028a61023b565b73ffffffffffffffffffffffffffffffffffffffff16146102e0576040517f08c379a00000000000000000000000000000000000000000000000000000000081526004016102d7906107ba565b60405180910390fd5b80600260006101000a81548173ffffffffffffffffffffffffffffffffffffffff021916908373ffffffffffffffffffffffffffffffffffffffff1602179055507f23ae5a31e2aa4824e9777a9e5f55ba9e7cebb6d667de78328ddfcb3cb571e6a281604051610350919061077f565b60405180910390a150565b600260009054906101000a900473ffffffffffffffffffffffffffffffffffffffff1673ffffffffffffffffffffffffffffffffffffffff1663b37217a4826040518263ffffffff1660e01b81526004016103b691906107da565b602060405180830381600087803b1580156103d057600080fd5b505af11580156103e4573d6000803e3d6000fd5b505050506040513d601f19601f820116820180604052508101906104089190610692565b6001819055507fec6cdc8e735e4069f6e89062582f3e5532a8e71373e7ef2962fa916cf2af21f260015460405161043f91906107da565b60405180910390a150565b60015481565b6104586105f9565b73ffffffffffffffffffffffffffffffffffffffff1661047661023b565b73ffffffffffffffffffffffffffffffffffffffff16146104cc576040517f08c379a00000000000000000000000000000000000000000000000000000000081526004016104c3906107ba565b60405180910390fd5b600073ffffffffffffffffffffffffffffffffffffffff168173ffffffffffffffffffffffffffffffffffffffff16141561053c576040517f08c379a00000000000000000000000000000000000000000000000000000000081526004016105339061079a565b60405180910390fd5b8073ffffffffffffffffffffffffffffffffffffffff1660008054906101000a900473ffffffffffffffffffffffffffffffffffffffff1673ffffffffffffffffffffffffffffffffffffffff167f8be0079c531659141344cd1fd0a4f28419497f9722a3daafe3b4186f6b6457e060405160405180910390a3806000806101000a81548173ffffffffffffffffffffffffffffffffffffffff021916908373ffffffffffffffffffffffffffffffffffffffff16021790555050565b600033905090565b60008135905061061081610842565b92915050565b60008135905061062581610859565b92915050565b60008151905061063a81610859565b92915050565b60006020828403121561065257600080fd5b600061066084828501610601565b91505092915050565b60006020828403121561067b57600080fd5b600061068984828501610616565b91505092915050565b6000602082840312156106a457600080fd5b60006106b28482850161062b565b91505092915050565b6106c481610806565b82525050565b60006106d76026836107f5565b91507f4f776e61626c653a206e6577206f776e657220697320746865207a65726f206160008301527f64647265737300000000000000000000000000000000000000000000000000006020830152604082019050919050565b600061073d6020836107f5565b91507f4f776e61626c653a2063616c6c6572206973206e6f7420746865206f776e65726000830152602082019050919050565b61077981610838565b82525050565b600060208201905061079460008301846106bb565b92915050565b600060208201905081810360008301526107b3816106ca565b9050919050565b600060208201905081810360008301526107d381610730565b9050919050565b60006020820190506107ef6000830184610770565b92915050565b600082825260208201905092915050565b600061081182610818565b9050919050565b600073ffffffffffffffffffffffffffffffffffffffff82169050919050565b6000819050919050565b61084b81610806565b811461085657600080fd5b50565b61086281610838565b811461086d57600080fd5b5056fea264697066735822122086c139df91bdfa78c34bb0ea159948c8700f97435ac0d5634c605c057c3a538564736f6c63430008000033",
  "linkReferences": {},
  "deployedLinkReferences": {}
}