{
  "_format": "hh-sol-artifact-1",
  "contractName": "RNGConsumer",
  "sourceName": "contracts/RNGConsumer.sol",
  "abi": [
    {
      "inputs": [
        {
          "internalType": "address",
          "name": "_priceRNG",
          "type": "address"
        }
      ],
      "stateMutability": "nonpayable",
      "type": "constructor"
    },
    {
      "anonymous": false,
      "inputs": [
        {
          "indexed": true,
          "internalType": "address",
          "name": "previousOwner",
          "type": "address"
        },
        {
          "indexed": true,
          "internalType": "address",
          "name": "newOwner",
          "type": "address"
        }
      ],
      "name": "OwnershipTransferred",
      "type": "event"
    },
    {
      "anonymous": false,
      "inputs": [
        {
          "indexed": false,
          "internalType": "address",
          "name": "priceRNGAddress",
          "type": "address"
        }
      ],
      "name": "PriceRNGSet",
      "type": "event"
    },
    {
      "anonymous": false,
      "inputs": [
        {
          "indexed": false,
          "internalType": "uint256",
          "name": "randomNumber",
          "type": "uint256"
        }
      ],
      "name": "RandomNumber",
      "type": "event"
    },
    {
      "inputs": [],
      "name": "acceptableEntropy",
      "outputs": [
        {
          "internalType": "bool",
          "name": "",
          "type": "bool"
        }
      ],
      "stateMutability": "view",
      "type": "function"
    },
    {
      "inputs": [],
      "name": "owner",
      "outputs": [
        {
          "internalType": "address",
          "name": "",
          "type": "address"
        }
      ],
      "stateMutability": "view",
      "type": "function"
    },
    {
      "inputs": [
        {
          "internalType": "uint256",
          "name": "range",
          "type": "uint256"
        }
      ],
      "name": "random",
      "outputs": [],
      "stateMutability": "nonpayable",
      "type": "function"
    },
    {
      "inputs": [],
      "name": "randomNumber",
      "outputs": [
        {
          "internalType": "uint256",
          "name": "",
          "type": "uint256"
        }
      ],
      "stateMutability": "view",
      "type": "function"
    },
    {
      "inputs": [],
      "name": "renounceOwnership",
      "outputs": [],
      "stateMutability": "nonpayable",
      "type": "function"
    },
    {
      "inputs": [
        {
          "internalType": "address",
          "name": "_priceRNG",
          "type": "address"
        }
      ],
      "name": "setPriceRNG",
      "outputs": [],
      "stateMutability": "nonpayable",
      "type": "function"
    },
    {
      "inputs": [
        {
          "internalType": "address",
          "name": "newOwner",
          "type": "address"
        }
      ],
      "name": "transferOwnership",
      "outputs": [],
      "stateMutability": "nonpayable",
      "type": "function"
    }
  ],
  "bytecode": "0x608060405234801561001057600080fd5b50604051610bad380380610bad8339818101604052810190610032919061017b565b600061004261015e60201b60201c565b9050806000806101000a81548173ffffffffffffffffffffffffffffffffffffffff021916908373ffffffffffffffffffffffffffffffffffffffff1602179055508073ffffffffffffffffffffffffffffffffffffffff16600073ffffffffffffffffffffffffffffffffffffffff167f8be0079c531659141344cd1fd0a4f28419497f9722a3daafe3b4186f6b6457e060405160405180910390a35080600260016101000a81548173ffffffffffffffffffffffffffffffffffffffff021916908373ffffffffffffffffffffffffffffffffffffffff1602179055507f23ae5a31e2aa4824e9777a9e5f55ba9e7cebb6d667de78328ddfcb3cb571e6a28160405161015091906101b3565b60405180910390a150610217565b600033905090565b60008151905061017581610200565b92915050565b60006020828403121561018d57600080fd5b600061019b84828501610166565b91505092915050565b6101ad816101ce565b82525050565b60006020820190506101c860008301846101a4565b92915050565b60006101d9826101e0565b9050919050565b600073ffffffffffffffffffffffffffffffffffffffff82169050919050565b610209816101ce565b811461021457600080fd5b50565b610987806102266000396000f3fe608060405234801561001057600080fd5b506004361061007d5760003560e01c8063b863bd371161005b578063b863bd37146100c6578063ccbac9f5146100e2578063d3501dd114610100578063f2fde38b1461011e5761007d565b8063715018a6146100825780638da5cb5b1461008c578063ab835b54146100aa575b600080fd5b61008a61013a565b005b610094610274565b6040516100a19190610822565b60405180910390f35b6100c460048036038101906100bf91906106c1565b61029d565b005b6100e060048036038101906100db91906106ea565b610394565b005b6100ea6104a3565b6040516100f79190610898565b60405180910390f35b6101086104a9565b604051610115919061083d565b60405180910390f35b610138600480360381019061013391906106c1565b6104bc565b005b610142610665565b73ffffffffffffffffffffffffffffffffffffffff16610160610274565b73ffffffffffffffffffffffffffffffffffffffff16146101b6576040517f08c379a00000000000000000000000000000000000000000000000000000000081526004016101ad90610878565b60405180910390fd5b600073ffffffffffffffffffffffffffffffffffffffff1660008054906101000a900473ffffffffffffffffffffffffffffffffffffffff1673ffffffffffffffffffffffffffffffffffffffff167f8be0079c531659141344cd1fd0a4f28419497f9722a3daafe3b4186f6b6457e060405160405180910390a360008060006101000a81548173ffffffffffffffffffffffffffffffffffffffff021916908373ffffffffffffffffffffffffffffffffffffffff160217905550565b60008060009054906101000a900473ffffffffffffffffffffffffffffffffffffffff16905090565b6102a5610665565b73ffffffffffffffffffffffffffffffffffffffff166102c3610274565b73ffffffffffffffffffffffffffffffffffffffff1614610319576040517f08c379a000000000000000000000000000000000000000000000000000000000815260040161031090610878565b60405180910390fd5b80600260016101000a81548173ffffffffffffffffffffffffffffffffffffffff021916908373ffffffffffffffffffffffffffffffffffffffff1602179055507f23ae5a31e2aa4824e9777a9e5f55ba9e7cebb6d667de78328ddfcb3cb571e6a2816040516103899190610822565b60405180910390a150565b600260019054906101000a900473ffffffffffffffffffffffffffffffffffffffff1673ffffffffffffffffffffffffffffffffffffffff1663b37217a4826040518263ffffffff1660e01b81526004016103ef9190610898565b6040805180830381600087803b15801561040857600080fd5b505af115801561041c573d6000803e3d6000fd5b505050506040513d601f19601f820116820180604052508101906104409190610713565b60016000600260008491906101000a81548160ff021916908315150217905550839190505550507fec6cdc8e735e4069f6e89062582f3e5532a8e71373e7ef2962fa916cf2af21f26001546040516104989190610898565b60405180910390a150565b60015481565b600260009054906101000a900460ff1681565b6104c4610665565b73ffffffffffffffffffffffffffffffffffffffff166104e2610274565b73ffffffffffffffffffffffffffffffffffffffff1614610538576040517f08c379a000000000000000000000000000000000000000000000000000000000815260040161052f90610878565b60405180910390fd5b600073ffffffffffffffffffffffffffffffffffffffff168173ffffffffffffffffffffffffffffffffffffffff1614156105a8576040517f08c379a000000000000000000000000000000000000000000000000000000000815260040161059f90610858565b60405180910390fd5b8073ffffffffffffffffffffffffffffffffffffffff1660008054906101000a900473ffffffffffffffffffffffffffffffffffffffff1673ffffffffffffffffffffffffffffffffffffffff167f8be0079c531659141344cd1fd0a4f28419497f9722a3daafe3b4186f6b6457e060405160405180910390a3806000806101000a81548173ffffffffffffffffffffffffffffffffffffffff021916908373ffffffffffffffffffffffffffffffffffffffff16021790555050565b600033905090565b60008135905061067c8161090c565b92915050565b60008151905061069181610923565b92915050565b6000813590506106a68161093a565b92915050565b6000815190506106bb8161093a565b92915050565b6000602082840312156106d357600080fd5b60006106e18482850161066d565b91505092915050565b6000602082840312156106fc57600080fd5b600061070a84828501610697565b91505092915050565b6000806040838503121561072657600080fd5b6000610734858286016106ac565b925050602061074585828601610682565b9150509250929050565b610758816108c4565b82525050565b610767816108d6565b82525050565b600061077a6026836108b3565b91507f4f776e61626c653a206e6577206f776e657220697320746865207a65726f206160008301527f64647265737300000000000000000000000000000000000000000000000000006020830152604082019050919050565b60006107e06020836108b3565b91507f4f776e61626c653a2063616c6c6572206973206e6f7420746865206f776e65726000830152602082019050919050565b61081c81610902565b82525050565b6000602082019050610837600083018461074f565b92915050565b6000602082019050610852600083018461075e565b92915050565b600060208201905081810360008301526108718161076d565b9050919050565b60006020820190508181036000830152610891816107d3565b9050919050565b60006020820190506108ad6000830184610813565b92915050565b600082825260208201905092915050565b60006108cf826108e2565b9050919050565b60008115159050919050565b600073ffffffffffffffffffffffffffffffffffffffff82169050919050565b6000819050919050565b610915816108c4565b811461092057600080fd5b50565b61092c816108d6565b811461093757600080fd5b50565b61094381610902565b811461094e57600080fd5b5056fea264697066735822122029c35f6af40c16be300acc1240db7ec9c49f7a207ef1f12a7f0da8a52cb6815c64736f6c63430008000033",
  "linkReferences": {},
  "deployedLinkReferences": {}
}