{
  "_format": "hh-sol-artifact-1",
  "contractName": "DeFiRNG",
  "sourceName": "contracts/DeFiRNG.sol",
  "abi": [
    {
      "inputs": [],
      "stateMutability": "nonpayable",
      "type": "constructor"
    },
    {
      "anonymous": false,
      "inputs": [
        {
          "indexed": true,
          "internalType": "address",
          "name": "previousOwner",
          "type": "address"
        },
        {
          "indexed": true,
          "internalType": "address",
          "name": "newOwner",
          "type": "address"
        }
      ],
      "name": "OwnershipTransferred",
      "type": "event"
    },
    {
      "anonymous": false,
      "inputs": [
        {
          "indexed": false,
          "internalType": "address",
          "name": "pair",
          "type": "address"
        },
        {
          "indexed": false,
          "internalType": "address",
          "name": "tokenA",
          "type": "address"
        },
        {
          "indexed": false,
          "internalType": "address",
          "name": "tokenB",
          "type": "address"
        }
      ],
      "name": "PairAdded",
      "type": "event"
    },
    {
      "anonymous": false,
      "inputs": [
        {
          "indexed": false,
          "internalType": "address",
          "name": "pair",
          "type": "address"
        },
        {
          "indexed": false,
          "internalType": "bool",
          "name": "active",
          "type": "bool"
        }
      ],
      "name": "PairStatusUpdated",
      "type": "event"
    },
    {
      "anonymous": false,
      "inputs": [
        {
          "indexed": true,
          "internalType": "address",
          "name": "requester",
          "type": "address"
        },
        {
          "indexed": false,
          "internalType": "uint256",
          "name": "randomNumber",
          "type": "uint256"
        }
      ],
      "name": "RandomNumber",
      "type": "event"
    },
    {
      "inputs": [
        {
          "internalType": "address",
          "name": "",
          "type": "address"
        }
      ],
      "name": "active",
      "outputs": [
        {
          "internalType": "bool",
          "name": "",
          "type": "bool"
        }
      ],
      "stateMutability": "view",
      "type": "function"
    },
    {
      "inputs": [
        {
          "internalType": "address",
          "name": "pair",
          "type": "address"
        }
      ],
      "name": "addPair",
      "outputs": [],
      "stateMutability": "nonpayable",
      "type": "function"
    },
    {
      "inputs": [
        {
          "internalType": "address",
          "name": "pair",
          "type": "address"
        },
        {
          "internalType": "bool",
          "name": "activeStatus",
          "type": "bool"
        }
      ],
      "name": "changePairStatus",
      "outputs": [],
      "stateMutability": "nonpayable",
      "type": "function"
    },
    {
      "inputs": [],
      "name": "currentPairIndex",
      "outputs": [
        {
          "internalType": "uint256",
          "name": "",
          "type": "uint256"
        }
      ],
      "stateMutability": "view",
      "type": "function"
    },
    {
      "inputs": [
        {
          "internalType": "uint256",
          "name": "range",
          "type": "uint256"
        }
      ],
      "name": "getRandomNumber",
      "outputs": [
        {
          "internalType": "uint256",
          "name": "randomNumber",
          "type": "uint256"
        },
        {
          "internalType": "bool",
          "name": "acceptableEntropy",
          "type": "bool"
        }
      ],
      "stateMutability": "nonpayable",
      "type": "function"
    },
    {
      "inputs": [],
      "name": "owner",
      "outputs": [
        {
          "internalType": "address",
          "name": "",
          "type": "address"
        }
      ],
      "stateMutability": "view",
      "type": "function"
    },
    {
      "inputs": [
        {
          "internalType": "address",
          "name": "",
          "type": "address"
        }
      ],
      "name": "pairIndex",
      "outputs": [
        {
          "internalType": "uint256",
          "name": "",
          "type": "uint256"
        }
      ],
      "stateMutability": "view",
      "type": "function"
    },
    {
      "inputs": [
        {
          "internalType": "uint256",
          "name": "",
          "type": "uint256"
        }
      ],
      "name": "pairs",
      "outputs": [
        {
          "internalType": "address",
          "name": "tokenA",
          "type": "address"
        },
        {
          "internalType": "address",
          "name": "tokenB",
          "type": "address"
        },
        {
          "internalType": "address",
          "name": "pair",
          "type": "address"
        },
        {
          "internalType": "uint256",
          "name": "lastUpdateTimeStamp",
          "type": "uint256"
        }
      ],
      "stateMutability": "view",
      "type": "function"
    },
    {
      "inputs": [],
      "name": "renounceOwnership",
      "outputs": [],
      "stateMutability": "nonpayable",
      "type": "function"
    },
    {
      "inputs": [
        {
          "internalType": "address",
          "name": "newOwner",
          "type": "address"
        }
      ],
      "name": "transferOwnership",
      "outputs": [],
      "stateMutability": "nonpayable",
      "type": "function"
    },
    {
      "inputs": [
        {
          "internalType": "uint256",
          "name": "range",
          "type": "uint256"
        }
      ],
      "name": "viewRandomNumber",
      "outputs": [
        {
          "internalType": "uint256",
          "name": "randomNumber",
          "type": "uint256"
        }
      ],
      "stateMutability": "view",
      "type": "function"
    }
  ],
  "bytecode": "0x608060405234801561001057600080fd5b5060006100216100c460201b60201c565b9050806000806101000a81548173ffffffffffffffffffffffffffffffffffffffff021916908373ffffffffffffffffffffffffffffffffffffffff1602179055508073ffffffffffffffffffffffffffffffffffffffff16600073ffffffffffffffffffffffffffffffffffffffff167f8be0079c531659141344cd1fd0a4f28419497f9722a3daafe3b4186f6b6457e060405160405180910390a3506100cc565b600033905090565b6120e1806100db6000396000f3fe608060405234801561001057600080fd5b50600436106100a95760003560e01c8063aeb22dbb11610071578063aeb22dbb14610154578063b37217a414610170578063b91ac788146101a1578063c2b7bbb6146101d4578063e1519551146101f0578063f2fde38b14610220576100a9565b8063428307c5146100ae5780634ea71327146100de5780636176593d1461010e578063715018a61461012c5780638da5cb5b14610136575b600080fd5b6100c860048036038101906100c39190611825565b61023c565b6040516100d59190611dd4565b60405180910390f35b6100f860048036038101906100f39190611748565b610512565b6040516101059190611cb9565b60405180910390f35b610116610532565b6040516101239190611dd4565b60405180910390f35b610134610538565b005b61013e610672565b60405161014b9190611bf9565b60405180910390f35b61016e6004803603810190610169919061179a565b61069b565b005b61018a60048036038101906101859190611825565b61082e565b604051610198929190611def565b60405180910390f35b6101bb60048036038101906101b69190611825565b610c9b565b6040516101cb9493929190611c4b565b60405180910390f35b6101ee60048036038101906101e99190611748565b610d2b565b005b61020a60048036038101906102059190611748565b6112a4565b6040516102179190611dd4565b60405180910390f35b61023a60048036038101906102359190611748565b6112bc565b005b60008060015411610282576040517f08c379a000000000000000000000000000000000000000000000000000000000815260040161027990611d34565b60405180910390fd5b6000336002546001436102959190611e7f565b4060001c6040516020016102ab93929190611bbc565b6040516020818303038152906040528051906020012060001c90506000600190505b6001548110156104fd57600560006003600084815260200190815260200160002060020160009054906101000a900473ffffffffffffffffffffffffffffffffffffffff1673ffffffffffffffffffffffffffffffffffffffff1673ffffffffffffffffffffffffffffffffffffffff16815260200190815260200160002060009054906101000a900460ff16610363576104ea565b6000600360008381526020019081526020016000206040518060800160405290816000820160009054906101000a900473ffffffffffffffffffffffffffffffffffffffff1673ffffffffffffffffffffffffffffffffffffffff1673ffffffffffffffffffffffffffffffffffffffff1681526020016001820160009054906101000a900473ffffffffffffffffffffffffffffffffffffffff1673ffffffffffffffffffffffffffffffffffffffff1673ffffffffffffffffffffffffffffffffffffffff1681526020016002820160009054906101000a900473ffffffffffffffffffffffffffffffffffffffff1673ffffffffffffffffffffffffffffffffffffffff1673ffffffffffffffffffffffffffffffffffffffff16815260200160038201548152505090506000806104ab836040015184600001518560200151611465565b509150915060006049886104bf9190611e29565b82846104cb9190611e29565b6104d59190611f9c565b905080866104e39190611e29565b9550505050505b80806104f590611f25565b9150506102cd565b50828161050a9190611f9c565b915050919050565b60056020528060005260406000206000915054906101000a900460ff1681565b60015481565b61054061157f565b73ffffffffffffffffffffffffffffffffffffffff1661055e610672565b73ffffffffffffffffffffffffffffffffffffffff16146105b4576040517f08c379a00000000000000000000000000000000000000000000000000000000081526004016105ab90611d94565b60405180910390fd5b600073ffffffffffffffffffffffffffffffffffffffff1660008054906101000a900473ffffffffffffffffffffffffffffffffffffffff1673ffffffffffffffffffffffffffffffffffffffff167f8be0079c531659141344cd1fd0a4f28419497f9722a3daafe3b4186f6b6457e060405160405180910390a360008060006101000a81548173ffffffffffffffffffffffffffffffffffffffff021916908373ffffffffffffffffffffffffffffffffffffffff160217905550565b60008060009054906101000a900473ffffffffffffffffffffffffffffffffffffffff16905090565b6106a361157f565b73ffffffffffffffffffffffffffffffffffffffff166106c1610672565b73ffffffffffffffffffffffffffffffffffffffff1614610717576040517f08c379a000000000000000000000000000000000000000000000000000000000815260040161070e90611d94565b60405180910390fd5b6000600460008473ffffffffffffffffffffffffffffffffffffffff1673ffffffffffffffffffffffffffffffffffffffff16815260200190815260200160002054141561079a576040517f08c379a000000000000000000000000000000000000000000000000000000000815260040161079190611d54565b60405180910390fd5b80600560008473ffffffffffffffffffffffffffffffffffffffff1673ffffffffffffffffffffffffffffffffffffffff16815260200190815260200160002060006101000a81548160ff0219169083151502179055507fe1ceb8c32031f9be884892c03cac438c6f9d5eedeaed79300a0ec3225f7a66f18282604051610822929190611c90565b60405180910390a15050565b600080600060015411610876576040517f08c379a000000000000000000000000000000000000000000000000000000000815260040161086d90611d34565b60405180910390fd5b6000336002546001436108899190611e7f565b4060001c60405160200161089f93929190611bbc565b6040516020818303038152906040528051906020012060001c90506000600190505b600154811015610c0657600560006003600084815260200190815260200160002060020160009054906101000a900473ffffffffffffffffffffffffffffffffffffffff1673ffffffffffffffffffffffffffffffffffffffff1673ffffffffffffffffffffffffffffffffffffffff16815260200190815260200160002060009054906101000a900460ff1661095757610bf3565b6000600360008381526020019081526020016000206040518060800160405290816000820160009054906101000a900473ffffffffffffffffffffffffffffffffffffffff1673ffffffffffffffffffffffffffffffffffffffff1673ffffffffffffffffffffffffffffffffffffffff1681526020016001820160009054906101000a900473ffffffffffffffffffffffffffffffffffffffff1673ffffffffffffffffffffffffffffffffffffffff1673ffffffffffffffffffffffffffffffffffffffff1681526020016002820160009054906101000a900473ffffffffffffffffffffffffffffffffffffffff1673ffffffffffffffffffffffffffffffffffffffff1673ffffffffffffffffffffffffffffffffffffffff16815260200160038201548152505090506000806000610aa1846040015185600001518660200151611465565b925092509250600060498a610ab69190611e29565b8385610ac29190611e29565b610acc9190611f9c565b90508087610ada9190611e29565b96508460600151821115610bed576001975081856060018181525050846003600088815260200190815260200160002060008201518160000160006101000a81548173ffffffffffffffffffffffffffffffffffffffff021916908373ffffffffffffffffffffffffffffffffffffffff16021790555060208201518160010160006101000a81548173ffffffffffffffffffffffffffffffffffffffff021916908373ffffffffffffffffffffffffffffffffffffffff16021790555060408201518160020160006101000a81548173ffffffffffffffffffffffffffffffffffffffff021916908373ffffffffffffffffffffffffffffffffffffffff160217905550606082015181600301559050505b50505050505b8080610bfe90611f25565b9150506108c1565b508381610c139190611f9c565b92503383604051602001610c28929190611b90565b6040516020818303038152906040528051906020012060001c6002819055503373ffffffffffffffffffffffffffffffffffffffff167fe67ca81bebec5e7bdb46360f006e87ae045476c3f20b92d43c142ce57ede0bd884604051610c8d9190611dd4565b60405180910390a250915091565b60036020528060005260406000206000915090508060000160009054906101000a900473ffffffffffffffffffffffffffffffffffffffff16908060010160009054906101000a900473ffffffffffffffffffffffffffffffffffffffff16908060020160009054906101000a900473ffffffffffffffffffffffffffffffffffffffff16908060030154905084565b610d3361157f565b73ffffffffffffffffffffffffffffffffffffffff16610d51610672565b73ffffffffffffffffffffffffffffffffffffffff1614610da7576040517f08c379a0000000000000000000000000000000000000000000000000000000008152600401610d9e90611d94565b60405180910390fd5b6103e88173ffffffffffffffffffffffffffffffffffffffff1663ba9a7a566040518163ffffffff1660e01b815260040160206040518083038186803b158015610df057600080fd5b505afa158015610e04573d6000803e3d6000fd5b505050506040513d601f19601f82011682018060405250810190610e28919061184e565b14610e68576040517f08c379a0000000000000000000000000000000000000000000000000000000008152600401610e5f90611cf4565b60405180910390fd5b6000600460008373ffffffffffffffffffffffffffffffffffffffff1673ffffffffffffffffffffffffffffffffffffffff1681526020019081526020016000205414610eea576040517f08c379a0000000000000000000000000000000000000000000000000000000008152600401610ee190611d74565b60405180910390fd5b6001806000828254610efc9190611e29565b9250508190555060405180608001604052808273ffffffffffffffffffffffffffffffffffffffff16630dfe16816040518163ffffffff1660e01b815260040160206040518083038186803b158015610f5457600080fd5b505afa158015610f68573d6000803e3d6000fd5b505050506040513d601f19601f82011682018060405250810190610f8c9190611771565b73ffffffffffffffffffffffffffffffffffffffff1681526020018273ffffffffffffffffffffffffffffffffffffffff1663d21220a76040518163ffffffff1660e01b815260040160206040518083038186803b158015610fed57600080fd5b505afa158015611001573d6000803e3d6000fd5b505050506040513d601f19601f820116820180604052508101906110259190611771565b73ffffffffffffffffffffffffffffffffffffffff1681526020018273ffffffffffffffffffffffffffffffffffffffff168152602001600081525060036000600154815260200190815260200160002060008201518160000160006101000a81548173ffffffffffffffffffffffffffffffffffffffff021916908373ffffffffffffffffffffffffffffffffffffffff16021790555060208201518160010160006101000a81548173ffffffffffffffffffffffffffffffffffffffff021916908373ffffffffffffffffffffffffffffffffffffffff16021790555060408201518160020160006101000a81548173ffffffffffffffffffffffffffffffffffffffff021916908373ffffffffffffffffffffffffffffffffffffffff16021790555060608201518160030155905050600154600460008373ffffffffffffffffffffffffffffffffffffffff1673ffffffffffffffffffffffffffffffffffffffff168152602001908152602001600020819055506001600560008373ffffffffffffffffffffffffffffffffffffffff1673ffffffffffffffffffffffffffffffffffffffff16815260200190815260200160002060006101000a81548160ff0219169083151502179055507f7f46075c67ca5bbd3aaf82d8e324282141f27b7cba3376e5498a6b70c9931c2a8160036000600154815260200190815260200160002060000160009054906101000a900473ffffffffffffffffffffffffffffffffffffffff1660036000600154815260200190815260200160002060010160009054906101000a900473ffffffffffffffffffffffffffffffffffffffff1660405161129993929190611c14565b60405180910390a150565b60046020528060005260406000206000915090505481565b6112c461157f565b73ffffffffffffffffffffffffffffffffffffffff166112e2610672565b73ffffffffffffffffffffffffffffffffffffffff1614611338576040517f08c379a000000000000000000000000000000000000000000000000000000000815260040161132f90611d94565b60405180910390fd5b600073ffffffffffffffffffffffffffffffffffffffff168173ffffffffffffffffffffffffffffffffffffffff1614156113a8576040517f08c379a000000000000000000000000000000000000000000000000000000000815260040161139f90611cd4565b60405180910390fd5b8073ffffffffffffffffffffffffffffffffffffffff1660008054906101000a900473ffffffffffffffffffffffffffffffffffffffff1673ffffffffffffffffffffffffffffffffffffffff167f8be0079c531659141344cd1fd0a4f28419497f9722a3daafe3b4186f6b6457e060405160405180910390a3806000806101000a81548173ffffffffffffffffffffffffffffffffffffffff021916908373ffffffffffffffffffffffffffffffffffffffff16021790555050565b6000806000806114758686611587565b50905060008060008973ffffffffffffffffffffffffffffffffffffffff16630902f1ac6040518163ffffffff1660e01b815260040160606040518083038186803b1580156114c357600080fd5b505afa1580156114d7573d6000803e3d6000fd5b505050506040513d601f19601f820116820180604052508101906114fb91906117d6565b63ffffffff1692506dffffffffffffffffffffffffffff1692506dffffffffffffffffffffffffffff1692508373ffffffffffffffffffffffffffffffffffffffff168973ffffffffffffffffffffffffffffffffffffffff161461156257818382611566565b8282825b8097508198508299505050505050505093509350939050565b600033905090565b6000808273ffffffffffffffffffffffffffffffffffffffff168473ffffffffffffffffffffffffffffffffffffffff1614156115f9576040517f08c379a00000000000000000000000000000000000000000000000000000000081526004016115f090611d14565b60405180910390fd5b8273ffffffffffffffffffffffffffffffffffffffff168473ffffffffffffffffffffffffffffffffffffffff1610611633578284611636565b83835b8092508193505050600073ffffffffffffffffffffffffffffffffffffffff168273ffffffffffffffffffffffffffffffffffffffff1614156116ae576040517f08c379a00000000000000000000000000000000000000000000000000000000081526004016116a590611db4565b60405180910390fd5b9250929050565b6000813590506116c481612038565b92915050565b6000815190506116d981612038565b92915050565b6000813590506116ee8161204f565b92915050565b60008151905061170381612066565b92915050565b6000813590506117188161207d565b92915050565b60008151905061172d8161207d565b92915050565b60008151905061174281612094565b92915050565b60006020828403121561175a57600080fd5b6000611768848285016116b5565b91505092915050565b60006020828403121561178357600080fd5b6000611791848285016116ca565b91505092915050565b600080604083850312156117ad57600080fd5b60006117bb858286016116b5565b92505060206117cc858286016116df565b9150509250929050565b6000806000606084860312156117eb57600080fd5b60006117f9868287016116f4565b935050602061180a868287016116f4565b925050604061181b86828701611733565b9150509250925092565b60006020828403121561183757600080fd5b600061184584828501611709565b91505092915050565b60006020828403121561186057600080fd5b600061186e8482850161171e565b91505092915050565b61188081611eb3565b82525050565b61189761189282611eb3565b611f6e565b82525050565b6118a681611ec5565b82525050565b60006118b9602683611e18565b91507f4f776e61626c653a206e6577206f776e657220697320746865207a65726f206160008301527f64647265737300000000000000000000000000000000000000000000000000006020830152604082019050919050565b600061191f601e83611e18565b91507f496e76616c6964207061697220616464726573732070726f76696465642e00006000830152602082019050919050565b600061195f602583611e18565b91507f556e697377617056324c6962726172793a204944454e544943414c5f4144445260008301527f45535345530000000000000000000000000000000000000000000000000000006020830152604082019050919050565b60006119c5603383611e18565b91507f4e6f20556e697377617020706169727320617661696c61626c6520746f20647260008301527f61772072616e646f6d6e6573732066726f6d2e000000000000000000000000006020830152604082019050919050565b6000611a2b603783611e18565b91507f43616e6e6f74206368616e67652074686520737461747573206f66206120706160008301527f6972207468617420646f6573206e6f742065786973742e0000000000000000006020830152604082019050919050565b6000611a91603083611e18565b91507f54686973207061697220616c726561647920657869737473206173206120726160008301527f6e646f6d6e65737320736f757263652e000000000000000000000000000000006020830152604082019050919050565b6000611af7602083611e18565b91507f4f776e61626c653a2063616c6c6572206973206e6f7420746865206f776e65726000830152602082019050919050565b6000611b37601e83611e18565b91507f556e697377617056324c6962726172793a205a45524f5f4144445245535300006000830152602082019050919050565b611b7381611f0b565b82525050565b611b8a611b8582611f0b565b611f92565b82525050565b6000611b9c8285611886565b601482019150611bac8284611b79565b6020820191508190509392505050565b6000611bc88286611886565b601482019150611bd88285611b79565b602082019150611be88284611b79565b602082019150819050949350505050565b6000602082019050611c0e6000830184611877565b92915050565b6000606082019050611c296000830186611877565b611c366020830185611877565b611c436040830184611877565b949350505050565b6000608082019050611c606000830187611877565b611c6d6020830186611877565b611c7a6040830185611877565b611c876060830184611b6a565b95945050505050565b6000604082019050611ca56000830185611877565b611cb2602083018461189d565b9392505050565b6000602082019050611cce600083018461189d565b92915050565b60006020820190508181036000830152611ced816118ac565b9050919050565b60006020820190508181036000830152611d0d81611912565b9050919050565b60006020820190508181036000830152611d2d81611952565b9050919050565b60006020820190508181036000830152611d4d816119b8565b9050919050565b60006020820190508181036000830152611d6d81611a1e565b9050919050565b60006020820190508181036000830152611d8d81611a84565b9050919050565b60006020820190508181036000830152611dad81611aea565b9050919050565b60006020820190508181036000830152611dcd81611b2a565b9050919050565b6000602082019050611de96000830184611b6a565b92915050565b6000604082019050611e046000830185611b6a565b611e11602083018461189d565b9392505050565b600082825260208201905092915050565b6000611e3482611f0b565b9150611e3f83611f0b565b9250827fffffffffffffffffffffffffffffffffffffffffffffffffffffffffffffffff03821115611e7457611e73611fcd565b5b828201905092915050565b6000611e8a82611f0b565b9150611e9583611f0b565b925082821015611ea857611ea7611fcd565b5b828203905092915050565b6000611ebe82611eeb565b9050919050565b60008115159050919050565b60006dffffffffffffffffffffffffffff82169050919050565b600073ffffffffffffffffffffffffffffffffffffffff82169050919050565b6000819050919050565b600063ffffffff82169050919050565b6000611f3082611f0b565b91507fffffffffffffffffffffffffffffffffffffffffffffffffffffffffffffffff821415611f6357611f62611fcd565b5b600182019050919050565b6000611f7982611f80565b9050919050565b6000611f8b8261202b565b9050919050565b6000819050919050565b6000611fa782611f0b565b9150611fb283611f0b565b925082611fc257611fc1611ffc565b5b828206905092915050565b7f4e487b7100000000000000000000000000000000000000000000000000000000600052601160045260246000fd5b7f4e487b7100000000000000000000000000000000000000000000000000000000600052601260045260246000fd5b60008160601b9050919050565b61204181611eb3565b811461204c57600080fd5b50565b61205881611ec5565b811461206357600080fd5b50565b61206f81611ed1565b811461207a57600080fd5b50565b61208681611f0b565b811461209157600080fd5b50565b61209d81611f15565b81146120a857600080fd5b5056fea26469706673582212200c106519ce4b534778164e6c914000b2c5853a003448c76daa68fc0fb0989e5264736f6c63430008000033",
  "linkReferences": {},
  "deployedLinkReferences": {}
}