{
  "_format": "hh-sol-artifact-1",
  "contractName": "DeFiRNG",
  "sourceName": "contracts/DeFiRNG.sol",
  "abi": [
    {
      "inputs": [],
      "stateMutability": "nonpayable",
      "type": "constructor"
    },
    {
      "anonymous": false,
      "inputs": [
        {
          "indexed": true,
          "internalType": "address",
          "name": "previousOwner",
          "type": "address"
        },
        {
          "indexed": true,
          "internalType": "address",
          "name": "newOwner",
          "type": "address"
        }
      ],
      "name": "OwnershipTransferred",
      "type": "event"
    },
    {
      "anonymous": false,
      "inputs": [
        {
          "indexed": false,
          "internalType": "address",
          "name": "pair",
          "type": "address"
        },
        {
          "indexed": false,
          "internalType": "bool",
          "name": "active",
          "type": "bool"
        }
      ],
      "name": "PairActiveStatus",
      "type": "event"
    },
    {
      "anonymous": false,
      "inputs": [
        {
          "indexed": false,
          "internalType": "address",
          "name": "pair",
          "type": "address"
        },
        {
          "indexed": false,
          "internalType": "address",
          "name": "tokenA",
          "type": "address"
        },
        {
          "indexed": false,
          "internalType": "address",
          "name": "tokenB",
          "type": "address"
        }
      ],
      "name": "PairAdded",
      "type": "event"
    },
    {
      "anonymous": false,
      "inputs": [
        {
          "indexed": true,
          "internalType": "address",
          "name": "requester",
          "type": "address"
        },
        {
          "indexed": false,
          "internalType": "uint256",
          "name": "randomNumber",
          "type": "uint256"
        }
      ],
      "name": "RandomNumber",
      "type": "event"
    },
    {
      "inputs": [
        {
          "internalType": "address",
          "name": "",
          "type": "address"
        }
      ],
      "name": "active",
      "outputs": [
        {
          "internalType": "bool",
          "name": "",
          "type": "bool"
        }
      ],
      "stateMutability": "view",
      "type": "function"
    },
    {
      "inputs": [
        {
          "internalType": "address",
          "name": "pair",
          "type": "address"
        },
        {
          "internalType": "address",
          "name": "tokenA",
          "type": "address"
        },
        {
          "internalType": "address",
          "name": "tokenB",
          "type": "address"
        }
      ],
      "name": "addPair",
      "outputs": [],
      "stateMutability": "nonpayable",
      "type": "function"
    },
    {
      "inputs": [
        {
          "internalType": "address",
          "name": "pair",
          "type": "address"
        },
        {
          "internalType": "bool",
          "name": "activeStatus",
          "type": "bool"
        }
      ],
      "name": "changePairStatus",
      "outputs": [],
      "stateMutability": "nonpayable",
      "type": "function"
    },
    {
      "inputs": [],
      "name": "currentPairIndex",
      "outputs": [
        {
          "internalType": "uint256",
          "name": "",
          "type": "uint256"
        }
      ],
      "stateMutability": "view",
      "type": "function"
    },
    {
      "inputs": [
        {
          "internalType": "uint256",
          "name": "range",
          "type": "uint256"
        }
      ],
      "name": "getRandomNumber",
      "outputs": [
        {
          "internalType": "uint256",
          "name": "randomNumber",
          "type": "uint256"
        },
        {
          "internalType": "bool",
          "name": "acceptableEntropy",
          "type": "bool"
        }
      ],
      "stateMutability": "nonpayable",
      "type": "function"
    },
    {
      "inputs": [],
      "name": "owner",
      "outputs": [
        {
          "internalType": "address",
          "name": "",
          "type": "address"
        }
      ],
      "stateMutability": "view",
      "type": "function"
    },
    {
      "inputs": [
        {
          "internalType": "address",
          "name": "",
          "type": "address"
        }
      ],
      "name": "pairIndex",
      "outputs": [
        {
          "internalType": "uint256",
          "name": "",
          "type": "uint256"
        }
      ],
      "stateMutability": "view",
      "type": "function"
    },
    {
      "inputs": [
        {
          "internalType": "uint256",
          "name": "",
          "type": "uint256"
        }
      ],
      "name": "pairs",
      "outputs": [
        {
          "internalType": "address",
          "name": "tokenA",
          "type": "address"
        },
        {
          "internalType": "address",
          "name": "tokenB",
          "type": "address"
        },
        {
          "internalType": "address",
          "name": "pair",
          "type": "address"
        },
        {
          "internalType": "uint256",
          "name": "lastUpdateTimeStamp",
          "type": "uint256"
        }
      ],
      "stateMutability": "view",
      "type": "function"
    },
    {
      "inputs": [],
      "name": "renounceOwnership",
      "outputs": [],
      "stateMutability": "nonpayable",
      "type": "function"
    },
    {
      "inputs": [
        {
          "internalType": "address",
          "name": "newOwner",
          "type": "address"
        }
      ],
      "name": "transferOwnership",
      "outputs": [],
      "stateMutability": "nonpayable",
      "type": "function"
    }
  ],
  "bytecode": "0x608060405234801561001057600080fd5b5060006100216100c460201b60201c565b9050806000806101000a81548173ffffffffffffffffffffffffffffffffffffffff021916908373ffffffffffffffffffffffffffffffffffffffff1602179055508073ffffffffffffffffffffffffffffffffffffffff16600073ffffffffffffffffffffffffffffffffffffffff167f8be0079c531659141344cd1fd0a4f28419497f9722a3daafe3b4186f6b6457e060405160405180910390a3506100cc565b600033905090565b611c79806100db6000396000f3fe608060405234801561001057600080fd5b506004361061009e5760003560e01c8063b37217a411610066578063b37217a414610135578063b91ac78814610166578063e151955114610199578063f1ec23cf146101c9578063f2fde38b146101e55761009e565b80634ea71327146100a35780636176593d146100d3578063715018a6146100f15780638da5cb5b146100fb578063aeb22dbb14610119575b600080fd5b6100bd60048036038101906100b891906112ba565b610201565b6040516100ca9190611851565b60405180910390f35b6100db610221565b6040516100e8919061196c565b60405180910390f35b6100f9610227565b005b610103610361565b6040516101109190611791565b60405180910390f35b610133600480360381019061012e9190611332565b61038a565b005b61014f600480360381019061014a91906113bd565b61051d565b60405161015d929190611987565b60405180910390f35b610180600480360381019061017b91906113bd565b61098a565b60405161019094939291906117e3565b60405180910390f35b6101b360048036038101906101ae91906112ba565b610a1a565b6040516101c0919061196c565b60405180910390f35b6101e360048036038101906101de91906112e3565b610a32565b005b6101ff60048036038101906101fa91906112ba565b610e43565b005b60056020528060005260406000206000915054906101000a900460ff1681565b60015481565b61022f610fec565b73ffffffffffffffffffffffffffffffffffffffff1661024d610361565b73ffffffffffffffffffffffffffffffffffffffff16146102a3576040517f08c379a000000000000000000000000000000000000000000000000000000000815260040161029a9061192c565b60405180910390fd5b600073ffffffffffffffffffffffffffffffffffffffff1660008054906101000a900473ffffffffffffffffffffffffffffffffffffffff1673ffffffffffffffffffffffffffffffffffffffff167f8be0079c531659141344cd1fd0a4f28419497f9722a3daafe3b4186f6b6457e060405160405180910390a360008060006101000a81548173ffffffffffffffffffffffffffffffffffffffff021916908373ffffffffffffffffffffffffffffffffffffffff160217905550565b60008060009054906101000a900473ffffffffffffffffffffffffffffffffffffffff16905090565b610392610fec565b73ffffffffffffffffffffffffffffffffffffffff166103b0610361565b73ffffffffffffffffffffffffffffffffffffffff1614610406576040517f08c379a00000000000000000000000000000000000000000000000000000000081526004016103fd9061192c565b60405180910390fd5b6000600460008473ffffffffffffffffffffffffffffffffffffffff1673ffffffffffffffffffffffffffffffffffffffff168152602001908152602001600020541415610489576040517f08c379a00000000000000000000000000000000000000000000000000000000081526004016104809061190c565b60405180910390fd5b80600560008473ffffffffffffffffffffffffffffffffffffffff1673ffffffffffffffffffffffffffffffffffffffff16815260200190815260200160002060006101000a81548160ff0219169083151502179055507fe441350f79f7e7c21b0920f052c9b0fbed416aa927949da9cc847bed43db3b158282604051610511929190611828565b60405180910390a15050565b600080600060015411610565576040517f08c379a000000000000000000000000000000000000000000000000000000000815260040161055c906118cc565b60405180910390fd5b6000336002546001436105789190611a17565b4060001c60405160200161058e93929190611754565b6040516020818303038152906040528051906020012060001c90506000600190505b6001548110156108f557600560006003600084815260200190815260200160002060020160009054906101000a900473ffffffffffffffffffffffffffffffffffffffff1673ffffffffffffffffffffffffffffffffffffffff1673ffffffffffffffffffffffffffffffffffffffff16815260200190815260200160002060009054906101000a900460ff16610646576108e2565b6000600360008381526020019081526020016000206040518060800160405290816000820160009054906101000a900473ffffffffffffffffffffffffffffffffffffffff1673ffffffffffffffffffffffffffffffffffffffff1673ffffffffffffffffffffffffffffffffffffffff1681526020016001820160009054906101000a900473ffffffffffffffffffffffffffffffffffffffff1673ffffffffffffffffffffffffffffffffffffffff1673ffffffffffffffffffffffffffffffffffffffff1681526020016002820160009054906101000a900473ffffffffffffffffffffffffffffffffffffffff1673ffffffffffffffffffffffffffffffffffffffff1673ffffffffffffffffffffffffffffffffffffffff16815260200160038201548152505090506000806000610790846040015185600001518660200151610ff4565b925092509250600060498a6107a591906119c1565b83856107b191906119c1565b6107bb9190611b34565b905080876107c991906119c1565b965084606001518211156108dc576001975081856060018181525050846003600088815260200190815260200160002060008201518160000160006101000a81548173ffffffffffffffffffffffffffffffffffffffff021916908373ffffffffffffffffffffffffffffffffffffffff16021790555060208201518160010160006101000a81548173ffffffffffffffffffffffffffffffffffffffff021916908373ffffffffffffffffffffffffffffffffffffffff16021790555060408201518160020160006101000a81548173ffffffffffffffffffffffffffffffffffffffff021916908373ffffffffffffffffffffffffffffffffffffffff160217905550606082015181600301559050505b50505050505b80806108ed90611abd565b9150506105b0565b5083816109029190611b34565b92503383604051602001610917929190611728565b6040516020818303038152906040528051906020012060001c6002819055503373ffffffffffffffffffffffffffffffffffffffff167fe67ca81bebec5e7bdb46360f006e87ae045476c3f20b92d43c142ce57ede0bd88460405161097c919061196c565b60405180910390a250915091565b60036020528060005260406000206000915090508060000160009054906101000a900473ffffffffffffffffffffffffffffffffffffffff16908060010160009054906101000a900473ffffffffffffffffffffffffffffffffffffffff16908060020160009054906101000a900473ffffffffffffffffffffffffffffffffffffffff16908060030154905084565b60046020528060005260406000206000915090505481565b610a3a610fec565b73ffffffffffffffffffffffffffffffffffffffff16610a58610361565b73ffffffffffffffffffffffffffffffffffffffff1614610aae576040517f08c379a0000000000000000000000000000000000000000000000000000000008152600401610aa59061192c565b60405180910390fd5b6103e88373ffffffffffffffffffffffffffffffffffffffff1663ba9a7a566040518163ffffffff1660e01b815260040160206040518083038186803b158015610af757600080fd5b505afa158015610b0b573d6000803e3d6000fd5b505050506040513d601f19601f82011682018060405250810190610b2f91906113e6565b14610b6f576040517f08c379a0000000000000000000000000000000000000000000000000000000008152600401610b669061188c565b60405180910390fd5b6000600460008573ffffffffffffffffffffffffffffffffffffffff1673ffffffffffffffffffffffffffffffffffffffff1681526020019081526020016000205414610bf1576040517f08c379a0000000000000000000000000000000000000000000000000000000008152600401610be8906118ec565b60405180910390fd5b6001806000828254610c0391906119c1565b9250508190555060405180608001604052808373ffffffffffffffffffffffffffffffffffffffff1681526020018273ffffffffffffffffffffffffffffffffffffffff1681526020018473ffffffffffffffffffffffffffffffffffffffff168152602001600081525060036000600154815260200190815260200160002060008201518160000160006101000a81548173ffffffffffffffffffffffffffffffffffffffff021916908373ffffffffffffffffffffffffffffffffffffffff16021790555060208201518160010160006101000a81548173ffffffffffffffffffffffffffffffffffffffff021916908373ffffffffffffffffffffffffffffffffffffffff16021790555060408201518160020160006101000a81548173ffffffffffffffffffffffffffffffffffffffff021916908373ffffffffffffffffffffffffffffffffffffffff16021790555060608201518160030155905050600154600460008573ffffffffffffffffffffffffffffffffffffffff1673ffffffffffffffffffffffffffffffffffffffff168152602001908152602001600020819055506001600560008573ffffffffffffffffffffffffffffffffffffffff1673ffffffffffffffffffffffffffffffffffffffff16815260200190815260200160002060006101000a81548160ff0219169083151502179055507f7f46075c67ca5bbd3aaf82d8e324282141f27b7cba3376e5498a6b70c9931c2a838383604051610e36939291906117ac565b60405180910390a1505050565b610e4b610fec565b73ffffffffffffffffffffffffffffffffffffffff16610e69610361565b73ffffffffffffffffffffffffffffffffffffffff1614610ebf576040517f08c379a0000000000000000000000000000000000000000000000000000000008152600401610eb69061192c565b60405180910390fd5b600073ffffffffffffffffffffffffffffffffffffffff168173ffffffffffffffffffffffffffffffffffffffff161415610f2f576040517f08c379a0000000000000000000000000000000000000000000000000000000008152600401610f269061186c565b60405180910390fd5b8073ffffffffffffffffffffffffffffffffffffffff1660008054906101000a900473ffffffffffffffffffffffffffffffffffffffff1673ffffffffffffffffffffffffffffffffffffffff167f8be0079c531659141344cd1fd0a4f28419497f9722a3daafe3b4186f6b6457e060405160405180910390a3806000806101000a81548173ffffffffffffffffffffffffffffffffffffffff021916908373ffffffffffffffffffffffffffffffffffffffff16021790555050565b600033905090565b600080600080611004868661110e565b50905060008060008973ffffffffffffffffffffffffffffffffffffffff16630902f1ac6040518163ffffffff1660e01b815260040160606040518083038186803b15801561105257600080fd5b505afa158015611066573d6000803e3d6000fd5b505050506040513d601f19601f8201168201806040525081019061108a919061136e565b63ffffffff1692506dffffffffffffffffffffffffffff1692506dffffffffffffffffffffffffffff1692508373ffffffffffffffffffffffffffffffffffffffff168973ffffffffffffffffffffffffffffffffffffffff16146110f1578183826110f5565b8282825b8097508198508299505050505050505093509350939050565b6000808273ffffffffffffffffffffffffffffffffffffffff168473ffffffffffffffffffffffffffffffffffffffff161415611180576040517f08c379a0000000000000000000000000000000000000000000000000000000008152600401611177906118ac565b60405180910390fd5b8273ffffffffffffffffffffffffffffffffffffffff168473ffffffffffffffffffffffffffffffffffffffff16106111ba5782846111bd565b83835b8092508193505050600073ffffffffffffffffffffffffffffffffffffffff168273ffffffffffffffffffffffffffffffffffffffff161415611235576040517f08c379a000000000000000000000000000000000000000000000000000000000815260040161122c9061194c565b60405180910390fd5b9250929050565b60008135905061124b81611bd0565b92915050565b60008135905061126081611be7565b92915050565b60008151905061127581611bfe565b92915050565b60008135905061128a81611c15565b92915050565b60008151905061129f81611c15565b92915050565b6000815190506112b481611c2c565b92915050565b6000602082840312156112cc57600080fd5b60006112da8482850161123c565b91505092915050565b6000806000606084860312156112f857600080fd5b60006113068682870161123c565b93505060206113178682870161123c565b92505060406113288682870161123c565b9150509250925092565b6000806040838503121561134557600080fd5b60006113538582860161123c565b925050602061136485828601611251565b9150509250929050565b60008060006060848603121561138357600080fd5b600061139186828701611266565b93505060206113a286828701611266565b92505060406113b3868287016112a5565b9150509250925092565b6000602082840312156113cf57600080fd5b60006113dd8482850161127b565b91505092915050565b6000602082840312156113f857600080fd5b600061140684828501611290565b91505092915050565b61141881611a4b565b82525050565b61142f61142a82611a4b565b611b06565b82525050565b61143e81611a5d565b82525050565b60006114516026836119b0565b91507f4f776e61626c653a206e6577206f776e657220697320746865207a65726f206160008301527f64647265737300000000000000000000000000000000000000000000000000006020830152604082019050919050565b60006114b7601e836119b0565b91507f496e76616c6964207061697220616464726573732070726f76696465642e00006000830152602082019050919050565b60006114f76025836119b0565b91507f556e697377617056324c6962726172793a204944454e544943414c5f4144445260008301527f45535345530000000000000000000000000000000000000000000000000000006020830152604082019050919050565b600061155d6033836119b0565b91507f4e6f20556e697377617020706169727320617661696c61626c6520746f20647260008301527f61772072616e646f6d6e6573732066726f6d2e000000000000000000000000006020830152604082019050919050565b60006115c36030836119b0565b91507f54686973207061697220616c726561647920657869737473206173206120726160008301527f6e646f6d6e65737320736f757263652e000000000000000000000000000000006020830152604082019050919050565b6000611629602d836119b0565b91507f43616e6e6f74206465616374697661746520612070616972207468617420646f60008301527f6573206e6f742065786973742e000000000000000000000000000000000000006020830152604082019050919050565b600061168f6020836119b0565b91507f4f776e61626c653a2063616c6c6572206973206e6f7420746865206f776e65726000830152602082019050919050565b60006116cf601e836119b0565b91507f556e697377617056324c6962726172793a205a45524f5f4144445245535300006000830152602082019050919050565b61170b81611aa3565b82525050565b61172261171d82611aa3565b611b2a565b82525050565b6000611734828561141e565b6014820191506117448284611711565b6020820191508190509392505050565b6000611760828661141e565b6014820191506117708285611711565b6020820191506117808284611711565b602082019150819050949350505050565b60006020820190506117a6600083018461140f565b92915050565b60006060820190506117c1600083018661140f565b6117ce602083018561140f565b6117db604083018461140f565b949350505050565b60006080820190506117f8600083018761140f565b611805602083018661140f565b611812604083018561140f565b61181f6060830184611702565b95945050505050565b600060408201905061183d600083018561140f565b61184a6020830184611435565b9392505050565b60006020820190506118666000830184611435565b92915050565b6000602082019050818103600083015261188581611444565b9050919050565b600060208201905081810360008301526118a5816114aa565b9050919050565b600060208201905081810360008301526118c5816114ea565b9050919050565b600060208201905081810360008301526118e581611550565b9050919050565b60006020820190508181036000830152611905816115b6565b9050919050565b600060208201905081810360008301526119258161161c565b9050919050565b6000602082019050818103600083015261194581611682565b9050919050565b60006020820190508181036000830152611965816116c2565b9050919050565b60006020820190506119816000830184611702565b92915050565b600060408201905061199c6000830185611702565b6119a96020830184611435565b9392505050565b600082825260208201905092915050565b60006119cc82611aa3565b91506119d783611aa3565b9250827fffffffffffffffffffffffffffffffffffffffffffffffffffffffffffffffff03821115611a0c57611a0b611b65565b5b828201905092915050565b6000611a2282611aa3565b9150611a2d83611aa3565b925082821015611a4057611a3f611b65565b5b828203905092915050565b6000611a5682611a83565b9050919050565b60008115159050919050565b60006dffffffffffffffffffffffffffff82169050919050565b600073ffffffffffffffffffffffffffffffffffffffff82169050919050565b6000819050919050565b600063ffffffff82169050919050565b6000611ac882611aa3565b91507fffffffffffffffffffffffffffffffffffffffffffffffffffffffffffffffff821415611afb57611afa611b65565b5b600182019050919050565b6000611b1182611b18565b9050919050565b6000611b2382611bc3565b9050919050565b6000819050919050565b6000611b3f82611aa3565b9150611b4a83611aa3565b925082611b5a57611b59611b94565b5b828206905092915050565b7f4e487b7100000000000000000000000000000000000000000000000000000000600052601160045260246000fd5b7f4e487b7100000000000000000000000000000000000000000000000000000000600052601260045260246000fd5b60008160601b9050919050565b611bd981611a4b565b8114611be457600080fd5b50565b611bf081611a5d565b8114611bfb57600080fd5b50565b611c0781611a69565b8114611c1257600080fd5b50565b611c1e81611aa3565b8114611c2957600080fd5b50565b611c3581611aad565b8114611c4057600080fd5b5056fea2646970667358221220b41cdf026eb75d47ca251d9cdc49a90af5a4d769e7c93a68b18f8ae8a8abff3a64736f6c63430008000033",
  "linkReferences": {},
  "deployedLinkReferences": {}
}