{
  "_format": "hh-sol-artifact-1",
  "contractName": "DeFiRNG",
  "sourceName": "contracts/DeFiRNG.sol",
  "abi": [
    {
      "inputs": [],
      "stateMutability": "nonpayable",
      "type": "constructor"
    },
    {
      "anonymous": false,
      "inputs": [
        {
          "indexed": true,
          "internalType": "address",
          "name": "previousOwner",
          "type": "address"
        },
        {
          "indexed": true,
          "internalType": "address",
          "name": "newOwner",
          "type": "address"
        }
      ],
      "name": "OwnershipTransferred",
      "type": "event"
    },
    {
      "anonymous": false,
      "inputs": [
        {
          "indexed": false,
          "internalType": "address",
          "name": "pair",
          "type": "address"
        },
        {
          "indexed": false,
          "internalType": "address",
          "name": "tokenA",
          "type": "address"
        },
        {
          "indexed": false,
          "internalType": "address",
          "name": "tokenB",
          "type": "address"
        }
      ],
      "name": "PairAdded",
      "type": "event"
    },
    {
      "anonymous": false,
      "inputs": [
        {
          "indexed": false,
          "internalType": "address",
          "name": "pair",
          "type": "address"
        },
        {
          "indexed": false,
          "internalType": "bool",
          "name": "active",
          "type": "bool"
        }
      ],
      "name": "PairStatusUpdated",
      "type": "event"
    },
    {
      "anonymous": false,
      "inputs": [
        {
          "indexed": true,
          "internalType": "address",
          "name": "requester",
          "type": "address"
        },
        {
          "indexed": false,
          "internalType": "uint256",
          "name": "randomNumber",
          "type": "uint256"
        }
      ],
      "name": "RandomNumber",
      "type": "event"
    },
    {
      "inputs": [
        {
          "internalType": "address",
          "name": "",
          "type": "address"
        }
      ],
      "name": "active",
      "outputs": [
        {
          "internalType": "bool",
          "name": "",
          "type": "bool"
        }
      ],
      "stateMutability": "view",
      "type": "function"
    },
    {
      "inputs": [
        {
          "internalType": "address",
          "name": "pair",
          "type": "address"
        }
      ],
      "name": "addPair",
      "outputs": [],
      "stateMutability": "nonpayable",
      "type": "function"
    },
    {
      "inputs": [
        {
          "internalType": "address",
          "name": "pair",
          "type": "address"
        },
        {
          "internalType": "bool",
          "name": "activeStatus",
          "type": "bool"
        }
      ],
      "name": "changePairStatus",
      "outputs": [],
      "stateMutability": "nonpayable",
      "type": "function"
    },
    {
      "inputs": [],
      "name": "currentPairIndex",
      "outputs": [
        {
          "internalType": "uint256",
          "name": "",
          "type": "uint256"
        }
      ],
      "stateMutability": "view",
      "type": "function"
    },
    {
      "inputs": [
        {
          "internalType": "uint256",
          "name": "range",
          "type": "uint256"
        }
      ],
      "name": "getRandomNumber",
      "outputs": [
        {
          "internalType": "uint256",
          "name": "randomNumber",
          "type": "uint256"
        },
        {
          "internalType": "bool",
          "name": "acceptableEntropy",
          "type": "bool"
        }
      ],
      "stateMutability": "nonpayable",
      "type": "function"
    },
    {
      "inputs": [],
      "name": "owner",
      "outputs": [
        {
          "internalType": "address",
          "name": "",
          "type": "address"
        }
      ],
      "stateMutability": "view",
      "type": "function"
    },
    {
      "inputs": [
        {
          "internalType": "address",
          "name": "",
          "type": "address"
        }
      ],
      "name": "pairIndex",
      "outputs": [
        {
          "internalType": "uint256",
          "name": "",
          "type": "uint256"
        }
      ],
      "stateMutability": "view",
      "type": "function"
    },
    {
      "inputs": [
        {
          "internalType": "uint256",
          "name": "",
          "type": "uint256"
        }
      ],
      "name": "pairs",
      "outputs": [
        {
          "internalType": "address",
          "name": "tokenA",
          "type": "address"
        },
        {
          "internalType": "address",
          "name": "tokenB",
          "type": "address"
        },
        {
          "internalType": "address",
          "name": "pair",
          "type": "address"
        },
        {
          "internalType": "uint256",
          "name": "lastUpdateTimeStamp",
          "type": "uint256"
        }
      ],
      "stateMutability": "view",
      "type": "function"
    },
    {
      "inputs": [],
      "name": "renounceOwnership",
      "outputs": [],
      "stateMutability": "nonpayable",
      "type": "function"
    },
    {
      "inputs": [
        {
          "internalType": "address",
          "name": "newOwner",
          "type": "address"
        }
      ],
      "name": "transferOwnership",
      "outputs": [],
      "stateMutability": "nonpayable",
      "type": "function"
    }
  ],
  "bytecode": "0x608060405234801561001057600080fd5b5060006100216100c460201b60201c565b9050806000806101000a81548173ffffffffffffffffffffffffffffffffffffffff021916908373ffffffffffffffffffffffffffffffffffffffff1602179055508073ffffffffffffffffffffffffffffffffffffffff16600073ffffffffffffffffffffffffffffffffffffffff167f8be0079c531659141344cd1fd0a4f28419497f9722a3daafe3b4186f6b6457e060405160405180910390a3506100cc565b600033905090565b611dd0806100db6000396000f3fe608060405234801561001057600080fd5b506004361061009e5760003560e01c8063b37217a411610066578063b37217a414610135578063b91ac78814610166578063c2b7bbb614610199578063e1519551146101b5578063f2fde38b146101e55761009e565b80634ea71327146100a35780636176593d146100d3578063715018a6146100f15780638da5cb5b146100fb578063aeb22dbb14610119575b600080fd5b6100bd60048036038101906100b89190611437565b610201565b6040516100ca91906119a8565b60405180910390f35b6100db610221565b6040516100e89190611ac3565b60405180910390f35b6100f9610227565b005b610103610361565b60405161011091906118e8565b60405180910390f35b610133600480360381019061012e9190611489565b61038a565b005b61014f600480360381019061014a9190611514565b61051d565b60405161015d929190611ade565b60405180910390f35b610180600480360381019061017b9190611514565b61098a565b604051610190949392919061193a565b60405180910390f35b6101b360048036038101906101ae9190611437565b610a1a565b005b6101cf60048036038101906101ca9190611437565b610f93565b6040516101dc9190611ac3565b60405180910390f35b6101ff60048036038101906101fa9190611437565b610fab565b005b60056020528060005260406000206000915054906101000a900460ff1681565b60015481565b61022f611154565b73ffffffffffffffffffffffffffffffffffffffff1661024d610361565b73ffffffffffffffffffffffffffffffffffffffff16146102a3576040517f08c379a000000000000000000000000000000000000000000000000000000000815260040161029a90611a83565b60405180910390fd5b600073ffffffffffffffffffffffffffffffffffffffff1660008054906101000a900473ffffffffffffffffffffffffffffffffffffffff1673ffffffffffffffffffffffffffffffffffffffff167f8be0079c531659141344cd1fd0a4f28419497f9722a3daafe3b4186f6b6457e060405160405180910390a360008060006101000a81548173ffffffffffffffffffffffffffffffffffffffff021916908373ffffffffffffffffffffffffffffffffffffffff160217905550565b60008060009054906101000a900473ffffffffffffffffffffffffffffffffffffffff16905090565b610392611154565b73ffffffffffffffffffffffffffffffffffffffff166103b0610361565b73ffffffffffffffffffffffffffffffffffffffff1614610406576040517f08c379a00000000000000000000000000000000000000000000000000000000081526004016103fd90611a83565b60405180910390fd5b6000600460008473ffffffffffffffffffffffffffffffffffffffff1673ffffffffffffffffffffffffffffffffffffffff168152602001908152602001600020541415610489576040517f08c379a000000000000000000000000000000000000000000000000000000000815260040161048090611a43565b60405180910390fd5b80600560008473ffffffffffffffffffffffffffffffffffffffff1673ffffffffffffffffffffffffffffffffffffffff16815260200190815260200160002060006101000a81548160ff0219169083151502179055507fe1ceb8c32031f9be884892c03cac438c6f9d5eedeaed79300a0ec3225f7a66f1828260405161051192919061197f565b60405180910390a15050565b600080600060015411610565576040517f08c379a000000000000000000000000000000000000000000000000000000000815260040161055c90611a23565b60405180910390fd5b6000336002546001436105789190611b6e565b4060001c60405160200161058e939291906118ab565b6040516020818303038152906040528051906020012060001c90506000600190505b6001548110156108f557600560006003600084815260200190815260200160002060020160009054906101000a900473ffffffffffffffffffffffffffffffffffffffff1673ffffffffffffffffffffffffffffffffffffffff1673ffffffffffffffffffffffffffffffffffffffff16815260200190815260200160002060009054906101000a900460ff16610646576108e2565b6000600360008381526020019081526020016000206040518060800160405290816000820160009054906101000a900473ffffffffffffffffffffffffffffffffffffffff1673ffffffffffffffffffffffffffffffffffffffff1673ffffffffffffffffffffffffffffffffffffffff1681526020016001820160009054906101000a900473ffffffffffffffffffffffffffffffffffffffff1673ffffffffffffffffffffffffffffffffffffffff1673ffffffffffffffffffffffffffffffffffffffff1681526020016002820160009054906101000a900473ffffffffffffffffffffffffffffffffffffffff1673ffffffffffffffffffffffffffffffffffffffff1673ffffffffffffffffffffffffffffffffffffffff1681526020016003820154815250509050600080600061079084604001518560000151866020015161115c565b925092509250600060498a6107a59190611b18565b83856107b19190611b18565b6107bb9190611c8b565b905080876107c99190611b18565b965084606001518211156108dc576001975081856060018181525050846003600088815260200190815260200160002060008201518160000160006101000a81548173ffffffffffffffffffffffffffffffffffffffff021916908373ffffffffffffffffffffffffffffffffffffffff16021790555060208201518160010160006101000a81548173ffffffffffffffffffffffffffffffffffffffff021916908373ffffffffffffffffffffffffffffffffffffffff16021790555060408201518160020160006101000a81548173ffffffffffffffffffffffffffffffffffffffff021916908373ffffffffffffffffffffffffffffffffffffffff160217905550606082015181600301559050505b50505050505b80806108ed90611c14565b9150506105b0565b5083816109029190611c8b565b9250338360405160200161091792919061187f565b6040516020818303038152906040528051906020012060001c6002819055503373ffffffffffffffffffffffffffffffffffffffff167fe67ca81bebec5e7bdb46360f006e87ae045476c3f20b92d43c142ce57ede0bd88460405161097c9190611ac3565b60405180910390a250915091565b60036020528060005260406000206000915090508060000160009054906101000a900473ffffffffffffffffffffffffffffffffffffffff16908060010160009054906101000a900473ffffffffffffffffffffffffffffffffffffffff16908060020160009054906101000a900473ffffffffffffffffffffffffffffffffffffffff16908060030154905084565b610a22611154565b73ffffffffffffffffffffffffffffffffffffffff16610a40610361565b73ffffffffffffffffffffffffffffffffffffffff1614610a96576040517f08c379a0000000000000000000000000000000000000000000000000000000008152600401610a8d90611a83565b60405180910390fd5b6103e88173ffffffffffffffffffffffffffffffffffffffff1663ba9a7a566040518163ffffffff1660e01b815260040160206040518083038186803b158015610adf57600080fd5b505afa158015610af3573d6000803e3d6000fd5b505050506040513d601f19601f82011682018060405250810190610b17919061153d565b14610b57576040517f08c379a0000000000000000000000000000000000000000000000000000000008152600401610b4e906119e3565b60405180910390fd5b6000600460008373ffffffffffffffffffffffffffffffffffffffff1673ffffffffffffffffffffffffffffffffffffffff1681526020019081526020016000205414610bd9576040517f08c379a0000000000000000000000000000000000000000000000000000000008152600401610bd090611a63565b60405180910390fd5b6001806000828254610beb9190611b18565b9250508190555060405180608001604052808273ffffffffffffffffffffffffffffffffffffffff16630dfe16816040518163ffffffff1660e01b815260040160206040518083038186803b158015610c4357600080fd5b505afa158015610c57573d6000803e3d6000fd5b505050506040513d601f19601f82011682018060405250810190610c7b9190611460565b73ffffffffffffffffffffffffffffffffffffffff1681526020018273ffffffffffffffffffffffffffffffffffffffff1663d21220a76040518163ffffffff1660e01b815260040160206040518083038186803b158015610cdc57600080fd5b505afa158015610cf0573d6000803e3d6000fd5b505050506040513d601f19601f82011682018060405250810190610d149190611460565b73ffffffffffffffffffffffffffffffffffffffff1681526020018273ffffffffffffffffffffffffffffffffffffffff168152602001600081525060036000600154815260200190815260200160002060008201518160000160006101000a81548173ffffffffffffffffffffffffffffffffffffffff021916908373ffffffffffffffffffffffffffffffffffffffff16021790555060208201518160010160006101000a81548173ffffffffffffffffffffffffffffffffffffffff021916908373ffffffffffffffffffffffffffffffffffffffff16021790555060408201518160020160006101000a81548173ffffffffffffffffffffffffffffffffffffffff021916908373ffffffffffffffffffffffffffffffffffffffff16021790555060608201518160030155905050600154600460008373ffffffffffffffffffffffffffffffffffffffff1673ffffffffffffffffffffffffffffffffffffffff168152602001908152602001600020819055506001600560008373ffffffffffffffffffffffffffffffffffffffff1673ffffffffffffffffffffffffffffffffffffffff16815260200190815260200160002060006101000a81548160ff0219169083151502179055507f7f46075c67ca5bbd3aaf82d8e324282141f27b7cba3376e5498a6b70c9931c2a8160036000600154815260200190815260200160002060000160009054906101000a900473ffffffffffffffffffffffffffffffffffffffff1660036000600154815260200190815260200160002060010160009054906101000a900473ffffffffffffffffffffffffffffffffffffffff16604051610f8893929190611903565b60405180910390a150565b60046020528060005260406000206000915090505481565b610fb3611154565b73ffffffffffffffffffffffffffffffffffffffff16610fd1610361565b73ffffffffffffffffffffffffffffffffffffffff1614611027576040517f08c379a000000000000000000000000000000000000000000000000000000000815260040161101e90611a83565b60405180910390fd5b600073ffffffffffffffffffffffffffffffffffffffff168173ffffffffffffffffffffffffffffffffffffffff161415611097576040517f08c379a000000000000000000000000000000000000000000000000000000000815260040161108e906119c3565b60405180910390fd5b8073ffffffffffffffffffffffffffffffffffffffff1660008054906101000a900473ffffffffffffffffffffffffffffffffffffffff1673ffffffffffffffffffffffffffffffffffffffff167f8be0079c531659141344cd1fd0a4f28419497f9722a3daafe3b4186f6b6457e060405160405180910390a3806000806101000a81548173ffffffffffffffffffffffffffffffffffffffff021916908373ffffffffffffffffffffffffffffffffffffffff16021790555050565b600033905090565b60008060008061116c8686611276565b50905060008060008973ffffffffffffffffffffffffffffffffffffffff16630902f1ac6040518163ffffffff1660e01b815260040160606040518083038186803b1580156111ba57600080fd5b505afa1580156111ce573d6000803e3d6000fd5b505050506040513d601f19601f820116820180604052508101906111f291906114c5565b63ffffffff1692506dffffffffffffffffffffffffffff1692506dffffffffffffffffffffffffffff1692508373ffffffffffffffffffffffffffffffffffffffff168973ffffffffffffffffffffffffffffffffffffffff16146112595781838261125d565b8282825b8097508198508299505050505050505093509350939050565b6000808273ffffffffffffffffffffffffffffffffffffffff168473ffffffffffffffffffffffffffffffffffffffff1614156112e8576040517f08c379a00000000000000000000000000000000000000000000000000000000081526004016112df90611a03565b60405180910390fd5b8273ffffffffffffffffffffffffffffffffffffffff168473ffffffffffffffffffffffffffffffffffffffff1610611322578284611325565b83835b8092508193505050600073ffffffffffffffffffffffffffffffffffffffff168273ffffffffffffffffffffffffffffffffffffffff16141561139d576040517f08c379a000000000000000000000000000000000000000000000000000000000815260040161139490611aa3565b60405180910390fd5b9250929050565b6000813590506113b381611d27565b92915050565b6000815190506113c881611d27565b92915050565b6000813590506113dd81611d3e565b92915050565b6000815190506113f281611d55565b92915050565b60008135905061140781611d6c565b92915050565b60008151905061141c81611d6c565b92915050565b60008151905061143181611d83565b92915050565b60006020828403121561144957600080fd5b6000611457848285016113a4565b91505092915050565b60006020828403121561147257600080fd5b6000611480848285016113b9565b91505092915050565b6000806040838503121561149c57600080fd5b60006114aa858286016113a4565b92505060206114bb858286016113ce565b9150509250929050565b6000806000606084860312156114da57600080fd5b60006114e8868287016113e3565b93505060206114f9868287016113e3565b925050604061150a86828701611422565b9150509250925092565b60006020828403121561152657600080fd5b6000611534848285016113f8565b91505092915050565b60006020828403121561154f57600080fd5b600061155d8482850161140d565b91505092915050565b61156f81611ba2565b82525050565b61158661158182611ba2565b611c5d565b82525050565b61159581611bb4565b82525050565b60006115a8602683611b07565b91507f4f776e61626c653a206e6577206f776e657220697320746865207a65726f206160008301527f64647265737300000000000000000000000000000000000000000000000000006020830152604082019050919050565b600061160e601e83611b07565b91507f496e76616c6964207061697220616464726573732070726f76696465642e00006000830152602082019050919050565b600061164e602583611b07565b91507f556e697377617056324c6962726172793a204944454e544943414c5f4144445260008301527f45535345530000000000000000000000000000000000000000000000000000006020830152604082019050919050565b60006116b4603383611b07565b91507f4e6f20556e697377617020706169727320617661696c61626c6520746f20647260008301527f61772072616e646f6d6e6573732066726f6d2e000000000000000000000000006020830152604082019050919050565b600061171a603783611b07565b91507f43616e6e6f74206368616e67652074686520737461747573206f66206120706160008301527f6972207468617420646f6573206e6f742065786973742e0000000000000000006020830152604082019050919050565b6000611780603083611b07565b91507f54686973207061697220616c726561647920657869737473206173206120726160008301527f6e646f6d6e65737320736f757263652e000000000000000000000000000000006020830152604082019050919050565b60006117e6602083611b07565b91507f4f776e61626c653a2063616c6c6572206973206e6f7420746865206f776e65726000830152602082019050919050565b6000611826601e83611b07565b91507f556e697377617056324c6962726172793a205a45524f5f4144445245535300006000830152602082019050919050565b61186281611bfa565b82525050565b61187961187482611bfa565b611c81565b82525050565b600061188b8285611575565b60148201915061189b8284611868565b6020820191508190509392505050565b60006118b78286611575565b6014820191506118c78285611868565b6020820191506118d78284611868565b602082019150819050949350505050565b60006020820190506118fd6000830184611566565b92915050565b60006060820190506119186000830186611566565b6119256020830185611566565b6119326040830184611566565b949350505050565b600060808201905061194f6000830187611566565b61195c6020830186611566565b6119696040830185611566565b6119766060830184611859565b95945050505050565b60006040820190506119946000830185611566565b6119a1602083018461158c565b9392505050565b60006020820190506119bd600083018461158c565b92915050565b600060208201905081810360008301526119dc8161159b565b9050919050565b600060208201905081810360008301526119fc81611601565b9050919050565b60006020820190508181036000830152611a1c81611641565b9050919050565b60006020820190508181036000830152611a3c816116a7565b9050919050565b60006020820190508181036000830152611a5c8161170d565b9050919050565b60006020820190508181036000830152611a7c81611773565b9050919050565b60006020820190508181036000830152611a9c816117d9565b9050919050565b60006020820190508181036000830152611abc81611819565b9050919050565b6000602082019050611ad86000830184611859565b92915050565b6000604082019050611af36000830185611859565b611b00602083018461158c565b9392505050565b600082825260208201905092915050565b6000611b2382611bfa565b9150611b2e83611bfa565b9250827fffffffffffffffffffffffffffffffffffffffffffffffffffffffffffffffff03821115611b6357611b62611cbc565b5b828201905092915050565b6000611b7982611bfa565b9150611b8483611bfa565b925082821015611b9757611b96611cbc565b5b828203905092915050565b6000611bad82611bda565b9050919050565b60008115159050919050565b60006dffffffffffffffffffffffffffff82169050919050565b600073ffffffffffffffffffffffffffffffffffffffff82169050919050565b6000819050919050565b600063ffffffff82169050919050565b6000611c1f82611bfa565b91507fffffffffffffffffffffffffffffffffffffffffffffffffffffffffffffffff821415611c5257611c51611cbc565b5b600182019050919050565b6000611c6882611c6f565b9050919050565b6000611c7a82611d1a565b9050919050565b6000819050919050565b6000611c9682611bfa565b9150611ca183611bfa565b925082611cb157611cb0611ceb565b5b828206905092915050565b7f4e487b7100000000000000000000000000000000000000000000000000000000600052601160045260246000fd5b7f4e487b7100000000000000000000000000000000000000000000000000000000600052601260045260246000fd5b60008160601b9050919050565b611d3081611ba2565b8114611d3b57600080fd5b50565b611d4781611bb4565b8114611d5257600080fd5b50565b611d5e81611bc0565b8114611d6957600080fd5b50565b611d7581611bfa565b8114611d8057600080fd5b50565b611d8c81611c04565b8114611d9757600080fd5b5056fea264697066735822122087018b6ecc739776051ebc2e5ea3dc96b4d427dc129571df29638dfea028a95664736f6c63430008000033",
  "linkReferences": {},
  "deployedLinkReferences": {}
}