{
  "_format": "hh-sol-artifact-1",
  "contractName": "PriceRNG",
  "sourceName": "contracts/PriceRNG.sol",
  "abi": [
    {
      "inputs": [],
      "stateMutability": "nonpayable",
      "type": "constructor"
    },
    {
      "anonymous": false,
      "inputs": [
        {
          "indexed": true,
          "internalType": "address",
          "name": "previousOwner",
          "type": "address"
        },
        {
          "indexed": true,
          "internalType": "address",
          "name": "newOwner",
          "type": "address"
        }
      ],
      "name": "OwnershipTransferred",
      "type": "event"
    },
    {
      "anonymous": false,
      "inputs": [
        {
          "indexed": false,
          "internalType": "address",
          "name": "pair",
          "type": "address"
        },
        {
          "indexed": false,
          "internalType": "address",
          "name": "tokenA",
          "type": "address"
        },
        {
          "indexed": false,
          "internalType": "address",
          "name": "tokenB",
          "type": "address"
        }
      ],
      "name": "PairAdded",
      "type": "event"
    },
    {
      "anonymous": false,
      "inputs": [
        {
          "indexed": true,
          "internalType": "address",
          "name": "requester",
          "type": "address"
        },
        {
          "indexed": false,
          "internalType": "uint256",
          "name": "randomNumber",
          "type": "uint256"
        }
      ],
      "name": "RandomNumber",
      "type": "event"
    },
    {
      "inputs": [
        {
          "internalType": "address",
          "name": "pair",
          "type": "address"
        },
        {
          "internalType": "address",
          "name": "tokenA",
          "type": "address"
        },
        {
          "internalType": "address",
          "name": "tokenB",
          "type": "address"
        }
      ],
      "name": "addPair",
      "outputs": [],
      "stateMutability": "nonpayable",
      "type": "function"
    },
    {
      "inputs": [
        {
          "internalType": "uint256",
          "name": "range",
          "type": "uint256"
        }
      ],
      "name": "getRandomNumber",
      "outputs": [
        {
          "internalType": "uint256",
          "name": "randomNumber",
          "type": "uint256"
        }
      ],
      "stateMutability": "nonpayable",
      "type": "function"
    },
    {
      "inputs": [],
      "name": "numOfPairs",
      "outputs": [
        {
          "internalType": "uint256",
          "name": "",
          "type": "uint256"
        }
      ],
      "stateMutability": "view",
      "type": "function"
    },
    {
      "inputs": [],
      "name": "owner",
      "outputs": [
        {
          "internalType": "address",
          "name": "",
          "type": "address"
        }
      ],
      "stateMutability": "view",
      "type": "function"
    },
    {
      "inputs": [
        {
          "internalType": "uint256",
          "name": "",
          "type": "uint256"
        }
      ],
      "name": "pairs",
      "outputs": [
        {
          "internalType": "address",
          "name": "tokenA",
          "type": "address"
        },
        {
          "internalType": "address",
          "name": "tokenB",
          "type": "address"
        },
        {
          "internalType": "address",
          "name": "pair",
          "type": "address"
        },
        {
          "internalType": "uint256",
          "name": "lastUpdateTimeStamp",
          "type": "uint256"
        }
      ],
      "stateMutability": "view",
      "type": "function"
    },
    {
      "inputs": [],
      "name": "renounceOwnership",
      "outputs": [],
      "stateMutability": "nonpayable",
      "type": "function"
    },
    {
      "inputs": [
        {
          "internalType": "address",
          "name": "newOwner",
          "type": "address"
        }
      ],
      "name": "transferOwnership",
      "outputs": [],
      "stateMutability": "nonpayable",
      "type": "function"
    }
  ],
  "bytecode": "0x608060405234801561001057600080fd5b5060006100216100c460201b60201c565b9050806000806101000a81548173ffffffffffffffffffffffffffffffffffffffff021916908373ffffffffffffffffffffffffffffffffffffffff1602179055508073ffffffffffffffffffffffffffffffffffffffff16600073ffffffffffffffffffffffffffffffffffffffff167f8be0079c531659141344cd1fd0a4f28419497f9722a3daafe3b4186f6b6457e060405160405180910390a3506100cc565b600033905090565b6116aa806100db6000396000f3fe608060405234801561001057600080fd5b506004361061007d5760003560e01c8063b37217a41161005b578063b37217a4146100c8578063b91ac788146100f8578063f1ec23cf1461012b578063f2fde38b146101475761007d565b8063715018a6146100825780638356b1481461008c5780638da5cb5b146100aa575b600080fd5b61008a610163565b005b61009461029d565b6040516100a191906113e9565b60405180910390f35b6100b26102a3565b6040516100bf9190611272565b60405180910390f35b6100e260048036038101906100dd9190610f50565b6102cc565b6040516100ef91906113e9565b60405180910390f35b610112600480360381019061010d9190610f50565b6106a7565b60405161012294939291906112c4565b60405180910390f35b61014560048036038101906101409190610eb2565b610737565b005b610161600480360381019061015c9190610e89565b610a27565b005b61016b610bd0565b73ffffffffffffffffffffffffffffffffffffffff166101896102a3565b73ffffffffffffffffffffffffffffffffffffffff16146101df576040517f08c379a00000000000000000000000000000000000000000000000000000000081526004016101d6906113a9565b60405180910390fd5b600073ffffffffffffffffffffffffffffffffffffffff1660008054906101000a900473ffffffffffffffffffffffffffffffffffffffff1673ffffffffffffffffffffffffffffffffffffffff167f8be0079c531659141344cd1fd0a4f28419497f9722a3daafe3b4186f6b6457e060405160405180910390a360008060006101000a81548173ffffffffffffffffffffffffffffffffffffffff021916908373ffffffffffffffffffffffffffffffffffffffff160217905550565b60015481565b60008060009054906101000a900473ffffffffffffffffffffffffffffffffffffffff16905090565b60008060015411610312576040517f08c379a000000000000000000000000000000000000000000000000000000000815260040161030990611389565b60405180910390fd5b60008033600143610323919061146b565b4060001c604051602001610338929190611246565b6040516020818303038152906040528051906020012060001c905060005b600154811015610603576000600260008381526020019081526020016000206040518060800160405290816000820160009054906101000a900473ffffffffffffffffffffffffffffffffffffffff1673ffffffffffffffffffffffffffffffffffffffff1673ffffffffffffffffffffffffffffffffffffffff1681526020016001820160009054906101000a900473ffffffffffffffffffffffffffffffffffffffff1673ffffffffffffffffffffffffffffffffffffffff1673ffffffffffffffffffffffffffffffffffffffff1681526020016002820160009054906101000a900473ffffffffffffffffffffffffffffffffffffffff1673ffffffffffffffffffffffffffffffffffffffff1673ffffffffffffffffffffffffffffffffffffffff168152602001600382015481525050905060008060006104aa846040015185600001518660200151610bd8565b9250925092506000604983856104c09190611415565b6104ca919061157c565b905080876104d89190611415565b965084606001518211156105eb576001975081856060018181525050846002600088815260200190815260200160002060008201518160000160006101000a81548173ffffffffffffffffffffffffffffffffffffffff021916908373ffffffffffffffffffffffffffffffffffffffff16021790555060208201518160010160006101000a81548173ffffffffffffffffffffffffffffffffffffffff021916908373ffffffffffffffffffffffffffffffffffffffff16021790555060408201518160020160006101000a81548173ffffffffffffffffffffffffffffffffffffffff021916908373ffffffffffffffffffffffffffffffffffffffff160217905550606082015181600301559050505b505050505080806105fb90611505565b915050610356565b5081610644576040517f08c379a000000000000000000000000000000000000000000000000000000000815260040161063b90611309565b60405180910390fd5b8381610650919061157c565b92503373ffffffffffffffffffffffffffffffffffffffff167fe67ca81bebec5e7bdb46360f006e87ae045476c3f20b92d43c142ce57ede0bd88460405161069891906113e9565b60405180910390a25050919050565b60026020528060005260406000206000915090508060000160009054906101000a900473ffffffffffffffffffffffffffffffffffffffff16908060010160009054906101000a900473ffffffffffffffffffffffffffffffffffffffff16908060020160009054906101000a900473ffffffffffffffffffffffffffffffffffffffff16908060030154905084565b61073f610bd0565b73ffffffffffffffffffffffffffffffffffffffff1661075d6102a3565b73ffffffffffffffffffffffffffffffffffffffff16146107b3576040517f08c379a00000000000000000000000000000000000000000000000000000000081526004016107aa906113a9565b60405180910390fd5b6103e88373ffffffffffffffffffffffffffffffffffffffff1663ba9a7a566040518163ffffffff1660e01b815260040160206040518083038186803b1580156107fc57600080fd5b505afa158015610810573d6000803e3d6000fd5b505050506040513d601f19601f820116820180604052508101906108349190610f79565b14610874576040517f08c379a000000000000000000000000000000000000000000000000000000000815260040161086b90611349565b60405180910390fd5b60405180608001604052808373ffffffffffffffffffffffffffffffffffffffff1681526020018273ffffffffffffffffffffffffffffffffffffffff1681526020018473ffffffffffffffffffffffffffffffffffffffff1681526020014281525060026000600154815260200190815260200160002060008201518160000160006101000a81548173ffffffffffffffffffffffffffffffffffffffff021916908373ffffffffffffffffffffffffffffffffffffffff16021790555060208201518160010160006101000a81548173ffffffffffffffffffffffffffffffffffffffff021916908373ffffffffffffffffffffffffffffffffffffffff16021790555060408201518160020160006101000a81548173ffffffffffffffffffffffffffffffffffffffff021916908373ffffffffffffffffffffffffffffffffffffffff1602179055506060820151816003015590505060018060008282546109e09190611415565b925050819055507f7f46075c67ca5bbd3aaf82d8e324282141f27b7cba3376e5498a6b70c9931c2a838383604051610a1a9392919061128d565b60405180910390a1505050565b610a2f610bd0565b73ffffffffffffffffffffffffffffffffffffffff16610a4d6102a3565b73ffffffffffffffffffffffffffffffffffffffff1614610aa3576040517f08c379a0000000000000000000000000000000000000000000000000000000008152600401610a9a906113a9565b60405180910390fd5b600073ffffffffffffffffffffffffffffffffffffffff168173ffffffffffffffffffffffffffffffffffffffff161415610b13576040517f08c379a0000000000000000000000000000000000000000000000000000000008152600401610b0a90611329565b60405180910390fd5b8073ffffffffffffffffffffffffffffffffffffffff1660008054906101000a900473ffffffffffffffffffffffffffffffffffffffff1673ffffffffffffffffffffffffffffffffffffffff167f8be0079c531659141344cd1fd0a4f28419497f9722a3daafe3b4186f6b6457e060405160405180910390a3806000806101000a81548173ffffffffffffffffffffffffffffffffffffffff021916908373ffffffffffffffffffffffffffffffffffffffff16021790555050565b600033905090565b600080600080610be88686610cf2565b50905060008060008973ffffffffffffffffffffffffffffffffffffffff16630902f1ac6040518163ffffffff1660e01b815260040160606040518083038186803b158015610c3657600080fd5b505afa158015610c4a573d6000803e3d6000fd5b505050506040513d601f19601f82011682018060405250810190610c6e9190610f01565b63ffffffff1692506dffffffffffffffffffffffffffff1692506dffffffffffffffffffffffffffff1692508373ffffffffffffffffffffffffffffffffffffffff168973ffffffffffffffffffffffffffffffffffffffff1614610cd557818382610cd9565b8282825b8097508198508299505050505050505093509350939050565b6000808273ffffffffffffffffffffffffffffffffffffffff168473ffffffffffffffffffffffffffffffffffffffff161415610d64576040517f08c379a0000000000000000000000000000000000000000000000000000000008152600401610d5b90611369565b60405180910390fd5b8273ffffffffffffffffffffffffffffffffffffffff168473ffffffffffffffffffffffffffffffffffffffff1610610d9e578284610da1565b83835b8092508193505050600073ffffffffffffffffffffffffffffffffffffffff168273ffffffffffffffffffffffffffffffffffffffff161415610e19576040517f08c379a0000000000000000000000000000000000000000000000000000000008152600401610e10906113c9565b60405180910390fd5b9250929050565b600081359050610e2f81611618565b92915050565b600081519050610e448161162f565b92915050565b600081359050610e5981611646565b92915050565b600081519050610e6e81611646565b92915050565b600081519050610e838161165d565b92915050565b600060208284031215610e9b57600080fd5b6000610ea984828501610e20565b91505092915050565b600080600060608486031215610ec757600080fd5b6000610ed586828701610e20565b9350506020610ee686828701610e20565b9250506040610ef786828701610e20565b9150509250925092565b600080600060608486031215610f1657600080fd5b6000610f2486828701610e35565b9350506020610f3586828701610e35565b9250506040610f4686828701610e74565b9150509250925092565b600060208284031215610f6257600080fd5b6000610f7084828501610e4a565b91505092915050565b600060208284031215610f8b57600080fd5b6000610f9984828501610e5f565b91505092915050565b610fab8161149f565b82525050565b610fc2610fbd8261149f565b61154e565b82525050565b6000610fd5602d83611404565b91507f43616e6e6f742067656e657261746520612073756666696369656e746c79207260008301527f616e646f6d206e756d6265722e000000000000000000000000000000000000006020830152604082019050919050565b600061103b602683611404565b91507f4f776e61626c653a206e6577206f776e657220697320746865207a65726f206160008301527f64647265737300000000000000000000000000000000000000000000000000006020830152604082019050919050565b60006110a1601e83611404565b91507f496e76616c6964207061697220616464726573732070726f76696465642e00006000830152602082019050919050565b60006110e1602583611404565b91507f556e697377617056324c6962726172793a204944454e544943414c5f4144445260008301527f45535345530000000000000000000000000000000000000000000000000000006020830152604082019050919050565b6000611147603383611404565b91507f4e6f20556e697377617020706169727320617661696c61626c6520746f20647260008301527f61772072616e646f6d6e6573732066726f6d2e000000000000000000000000006020830152604082019050919050565b60006111ad602083611404565b91507f4f776e61626c653a2063616c6c6572206973206e6f7420746865206f776e65726000830152602082019050919050565b60006111ed601e83611404565b91507f556e697377617056324c6962726172793a205a45524f5f4144445245535300006000830152602082019050919050565b611229816114eb565b82525050565b61124061123b826114eb565b611572565b82525050565b60006112528285610fb1565b601482019150611262828461122f565b6020820191508190509392505050565b60006020820190506112876000830184610fa2565b92915050565b60006060820190506112a26000830186610fa2565b6112af6020830185610fa2565b6112bc6040830184610fa2565b949350505050565b60006080820190506112d96000830187610fa2565b6112e66020830186610fa2565b6112f36040830185610fa2565b6113006060830184611220565b95945050505050565b6000602082019050818103600083015261132281610fc8565b9050919050565b600060208201905081810360008301526113428161102e565b9050919050565b6000602082019050818103600083015261136281611094565b9050919050565b60006020820190508181036000830152611382816110d4565b9050919050565b600060208201905081810360008301526113a28161113a565b9050919050565b600060208201905081810360008301526113c2816111a0565b9050919050565b600060208201905081810360008301526113e2816111e0565b9050919050565b60006020820190506113fe6000830184611220565b92915050565b600082825260208201905092915050565b6000611420826114eb565b915061142b836114eb565b9250827fffffffffffffffffffffffffffffffffffffffffffffffffffffffffffffffff038211156114605761145f6115ad565b5b828201905092915050565b6000611476826114eb565b9150611481836114eb565b925082821015611494576114936115ad565b5b828203905092915050565b60006114aa826114cb565b9050919050565b60006dffffffffffffffffffffffffffff82169050919050565b600073ffffffffffffffffffffffffffffffffffffffff82169050919050565b6000819050919050565b600063ffffffff82169050919050565b6000611510826114eb565b91507fffffffffffffffffffffffffffffffffffffffffffffffffffffffffffffffff821415611543576115426115ad565b5b600182019050919050565b600061155982611560565b9050919050565b600061156b8261160b565b9050919050565b6000819050919050565b6000611587826114eb565b9150611592836114eb565b9250826115a2576115a16115dc565b5b828206905092915050565b7f4e487b7100000000000000000000000000000000000000000000000000000000600052601160045260246000fd5b7f4e487b7100000000000000000000000000000000000000000000000000000000600052601260045260246000fd5b60008160601b9050919050565b6116218161149f565b811461162c57600080fd5b50565b611638816114b1565b811461164357600080fd5b50565b61164f816114eb565b811461165a57600080fd5b50565b611666816114f5565b811461167157600080fd5b5056fea2646970667358221220a879eafd6802be7bd340b71301b021bc47fbc350c8b759c5dbdca4a70cdf801664736f6c63430008000033",
  "linkReferences": {},
  "deployedLinkReferences": {}
}