{
  "_format": "hh-sol-artifact-1",
  "contractName": "PriceRNG",
  "sourceName": "contracts/PriceRNG.sol",
  "abi": [
    {
      "inputs": [],
      "stateMutability": "nonpayable",
      "type": "constructor"
    },
    {
      "anonymous": false,
      "inputs": [
        {
          "indexed": true,
          "internalType": "address",
          "name": "previousOwner",
          "type": "address"
        },
        {
          "indexed": true,
          "internalType": "address",
          "name": "newOwner",
          "type": "address"
        }
      ],
      "name": "OwnershipTransferred",
      "type": "event"
    },
    {
      "anonymous": false,
      "inputs": [
        {
          "indexed": false,
          "internalType": "address",
          "name": "pair",
          "type": "address"
        },
        {
          "indexed": false,
          "internalType": "address",
          "name": "tokenA",
          "type": "address"
        },
        {
          "indexed": false,
          "internalType": "address",
          "name": "tokenB",
          "type": "address"
        }
      ],
      "name": "PairAdded",
      "type": "event"
    },
    {
      "anonymous": false,
      "inputs": [
        {
          "indexed": true,
          "internalType": "address",
          "name": "requester",
          "type": "address"
        },
        {
          "indexed": false,
          "internalType": "uint256",
          "name": "randomNumber",
          "type": "uint256"
        }
      ],
      "name": "RandomNumber",
      "type": "event"
    },
    {
      "inputs": [
        {
          "internalType": "address",
          "name": "pair",
          "type": "address"
        },
        {
          "internalType": "address",
          "name": "tokenA",
          "type": "address"
        },
        {
          "internalType": "address",
          "name": "tokenB",
          "type": "address"
        }
      ],
      "name": "addPair",
      "outputs": [],
      "stateMutability": "nonpayable",
      "type": "function"
    },
    {
      "inputs": [
        {
          "internalType": "uint256",
          "name": "range",
          "type": "uint256"
        }
      ],
      "name": "getRandomNumber",
      "outputs": [
        {
          "internalType": "uint256",
          "name": "randomNumber",
          "type": "uint256"
        }
      ],
      "stateMutability": "nonpayable",
      "type": "function"
    },
    {
      "inputs": [],
      "name": "numOfPairs",
      "outputs": [
        {
          "internalType": "uint256",
          "name": "",
          "type": "uint256"
        }
      ],
      "stateMutability": "view",
      "type": "function"
    },
    {
      "inputs": [],
      "name": "owner",
      "outputs": [
        {
          "internalType": "address",
          "name": "",
          "type": "address"
        }
      ],
      "stateMutability": "view",
      "type": "function"
    },
    {
      "inputs": [
        {
          "internalType": "uint256",
          "name": "",
          "type": "uint256"
        }
      ],
      "name": "pairs",
      "outputs": [
        {
          "internalType": "address",
          "name": "tokenA",
          "type": "address"
        },
        {
          "internalType": "address",
          "name": "tokenB",
          "type": "address"
        },
        {
          "internalType": "address",
          "name": "pair",
          "type": "address"
        },
        {
          "internalType": "uint256",
          "name": "lastUpdateTimeStamp",
          "type": "uint256"
        }
      ],
      "stateMutability": "view",
      "type": "function"
    },
    {
      "inputs": [],
      "name": "renounceOwnership",
      "outputs": [],
      "stateMutability": "nonpayable",
      "type": "function"
    },
    {
      "inputs": [
        {
          "internalType": "address",
          "name": "newOwner",
          "type": "address"
        }
      ],
      "name": "transferOwnership",
      "outputs": [],
      "stateMutability": "nonpayable",
      "type": "function"
    }
  ],
  "bytecode": "0x608060405234801561001057600080fd5b5060006100216100c460201b60201c565b9050806000806101000a81548173ffffffffffffffffffffffffffffffffffffffff021916908373ffffffffffffffffffffffffffffffffffffffff1602179055508073ffffffffffffffffffffffffffffffffffffffff16600073ffffffffffffffffffffffffffffffffffffffff167f8be0079c531659141344cd1fd0a4f28419497f9722a3daafe3b4186f6b6457e060405160405180910390a3506100cc565b600033905090565b6116ab806100db6000396000f3fe608060405234801561001057600080fd5b506004361061007d5760003560e01c8063b37217a41161005b578063b37217a4146100c8578063b91ac788146100f8578063f1ec23cf1461012b578063f2fde38b146101475761007d565b8063715018a6146100825780638356b1481461008c5780638da5cb5b146100aa575b600080fd5b61008a610163565b005b61009461029d565b6040516100a191906113ea565b60405180910390f35b6100b26102a3565b6040516100bf9190611273565b60405180910390f35b6100e260048036038101906100dd9190610f51565b6102cc565b6040516100ef91906113ea565b60405180910390f35b610112600480360381019061010d9190610f51565b6106a7565b60405161012294939291906112c5565b60405180910390f35b61014560048036038101906101409190610eb3565b610737565b005b610161600480360381019061015c9190610e8a565b610a28565b005b61016b610bd1565b73ffffffffffffffffffffffffffffffffffffffff166101896102a3565b73ffffffffffffffffffffffffffffffffffffffff16146101df576040517f08c379a00000000000000000000000000000000000000000000000000000000081526004016101d6906113aa565b60405180910390fd5b600073ffffffffffffffffffffffffffffffffffffffff1660008054906101000a900473ffffffffffffffffffffffffffffffffffffffff1673ffffffffffffffffffffffffffffffffffffffff167f8be0079c531659141344cd1fd0a4f28419497f9722a3daafe3b4186f6b6457e060405160405180910390a360008060006101000a81548173ffffffffffffffffffffffffffffffffffffffff021916908373ffffffffffffffffffffffffffffffffffffffff160217905550565b60015481565b60008060009054906101000a900473ffffffffffffffffffffffffffffffffffffffff16905090565b60008060015411610312576040517f08c379a00000000000000000000000000000000000000000000000000000000081526004016103099061138a565b60405180910390fd5b60008033600143610323919061146c565b4060001c604051602001610338929190611247565b6040516020818303038152906040528051906020012060001c905060005b600154811015610603576000600260008381526020019081526020016000206040518060800160405290816000820160009054906101000a900473ffffffffffffffffffffffffffffffffffffffff1673ffffffffffffffffffffffffffffffffffffffff1673ffffffffffffffffffffffffffffffffffffffff1681526020016001820160009054906101000a900473ffffffffffffffffffffffffffffffffffffffff1673ffffffffffffffffffffffffffffffffffffffff1673ffffffffffffffffffffffffffffffffffffffff1681526020016002820160009054906101000a900473ffffffffffffffffffffffffffffffffffffffff1673ffffffffffffffffffffffffffffffffffffffff1673ffffffffffffffffffffffffffffffffffffffff168152602001600382015481525050905060008060006104aa846040015185600001518660200151610bd9565b9250925092506000604983856104c09190611416565b6104ca919061157d565b905080876104d89190611416565b965084606001518211156105eb576001975081856060018181525050846002600088815260200190815260200160002060008201518160000160006101000a81548173ffffffffffffffffffffffffffffffffffffffff021916908373ffffffffffffffffffffffffffffffffffffffff16021790555060208201518160010160006101000a81548173ffffffffffffffffffffffffffffffffffffffff021916908373ffffffffffffffffffffffffffffffffffffffff16021790555060408201518160020160006101000a81548173ffffffffffffffffffffffffffffffffffffffff021916908373ffffffffffffffffffffffffffffffffffffffff160217905550606082015181600301559050505b505050505080806105fb90611506565b915050610356565b5081610644576040517f08c379a000000000000000000000000000000000000000000000000000000000815260040161063b9061130a565b60405180910390fd5b8381610650919061157d565b92503373ffffffffffffffffffffffffffffffffffffffff167fe67ca81bebec5e7bdb46360f006e87ae045476c3f20b92d43c142ce57ede0bd88460405161069891906113ea565b60405180910390a25050919050565b60026020528060005260406000206000915090508060000160009054906101000a900473ffffffffffffffffffffffffffffffffffffffff16908060010160009054906101000a900473ffffffffffffffffffffffffffffffffffffffff16908060020160009054906101000a900473ffffffffffffffffffffffffffffffffffffffff16908060030154905084565b61073f610bd1565b73ffffffffffffffffffffffffffffffffffffffff1661075d6102a3565b73ffffffffffffffffffffffffffffffffffffffff16146107b3576040517f08c379a00000000000000000000000000000000000000000000000000000000081526004016107aa906113aa565b60405180910390fd5b6103e88373ffffffffffffffffffffffffffffffffffffffff1663ba9a7a566040518163ffffffff1660e01b815260040160206040518083038186803b1580156107fc57600080fd5b505afa158015610810573d6000803e3d6000fd5b505050506040513d601f19601f820116820180604052508101906108349190610f7a565b14610874576040517f08c379a000000000000000000000000000000000000000000000000000000000815260040161086b9061134a565b60405180910390fd5b60405180608001604052808373ffffffffffffffffffffffffffffffffffffffff1681526020018273ffffffffffffffffffffffffffffffffffffffff1681526020018473ffffffffffffffffffffffffffffffffffffffff168152602001600081525060026000600154815260200190815260200160002060008201518160000160006101000a81548173ffffffffffffffffffffffffffffffffffffffff021916908373ffffffffffffffffffffffffffffffffffffffff16021790555060208201518160010160006101000a81548173ffffffffffffffffffffffffffffffffffffffff021916908373ffffffffffffffffffffffffffffffffffffffff16021790555060408201518160020160006101000a81548173ffffffffffffffffffffffffffffffffffffffff021916908373ffffffffffffffffffffffffffffffffffffffff1602179055506060820151816003015590505060018060008282546109e19190611416565b925050819055507f7f46075c67ca5bbd3aaf82d8e324282141f27b7cba3376e5498a6b70c9931c2a838383604051610a1b9392919061128e565b60405180910390a1505050565b610a30610bd1565b73ffffffffffffffffffffffffffffffffffffffff16610a4e6102a3565b73ffffffffffffffffffffffffffffffffffffffff1614610aa4576040517f08c379a0000000000000000000000000000000000000000000000000000000008152600401610a9b906113aa565b60405180910390fd5b600073ffffffffffffffffffffffffffffffffffffffff168173ffffffffffffffffffffffffffffffffffffffff161415610b14576040517f08c379a0000000000000000000000000000000000000000000000000000000008152600401610b0b9061132a565b60405180910390fd5b8073ffffffffffffffffffffffffffffffffffffffff1660008054906101000a900473ffffffffffffffffffffffffffffffffffffffff1673ffffffffffffffffffffffffffffffffffffffff167f8be0079c531659141344cd1fd0a4f28419497f9722a3daafe3b4186f6b6457e060405160405180910390a3806000806101000a81548173ffffffffffffffffffffffffffffffffffffffff021916908373ffffffffffffffffffffffffffffffffffffffff16021790555050565b600033905090565b600080600080610be98686610cf3565b50905060008060008973ffffffffffffffffffffffffffffffffffffffff16630902f1ac6040518163ffffffff1660e01b815260040160606040518083038186803b158015610c3757600080fd5b505afa158015610c4b573d6000803e3d6000fd5b505050506040513d601f19601f82011682018060405250810190610c6f9190610f02565b63ffffffff1692506dffffffffffffffffffffffffffff1692506dffffffffffffffffffffffffffff1692508373ffffffffffffffffffffffffffffffffffffffff168973ffffffffffffffffffffffffffffffffffffffff1614610cd657818382610cda565b8282825b8097508198508299505050505050505093509350939050565b6000808273ffffffffffffffffffffffffffffffffffffffff168473ffffffffffffffffffffffffffffffffffffffff161415610d65576040517f08c379a0000000000000000000000000000000000000000000000000000000008152600401610d5c9061136a565b60405180910390fd5b8273ffffffffffffffffffffffffffffffffffffffff168473ffffffffffffffffffffffffffffffffffffffff1610610d9f578284610da2565b83835b8092508193505050600073ffffffffffffffffffffffffffffffffffffffff168273ffffffffffffffffffffffffffffffffffffffff161415610e1a576040517f08c379a0000000000000000000000000000000000000000000000000000000008152600401610e11906113ca565b60405180910390fd5b9250929050565b600081359050610e3081611619565b92915050565b600081519050610e4581611630565b92915050565b600081359050610e5a81611647565b92915050565b600081519050610e6f81611647565b92915050565b600081519050610e848161165e565b92915050565b600060208284031215610e9c57600080fd5b6000610eaa84828501610e21565b91505092915050565b600080600060608486031215610ec857600080fd5b6000610ed686828701610e21565b9350506020610ee786828701610e21565b9250506040610ef886828701610e21565b9150509250925092565b600080600060608486031215610f1757600080fd5b6000610f2586828701610e36565b9350506020610f3686828701610e36565b9250506040610f4786828701610e75565b9150509250925092565b600060208284031215610f6357600080fd5b6000610f7184828501610e4b565b91505092915050565b600060208284031215610f8c57600080fd5b6000610f9a84828501610e60565b91505092915050565b610fac816114a0565b82525050565b610fc3610fbe826114a0565b61154f565b82525050565b6000610fd6602d83611405565b91507f43616e6e6f742067656e657261746520612073756666696369656e746c79207260008301527f616e646f6d206e756d6265722e000000000000000000000000000000000000006020830152604082019050919050565b600061103c602683611405565b91507f4f776e61626c653a206e6577206f776e657220697320746865207a65726f206160008301527f64647265737300000000000000000000000000000000000000000000000000006020830152604082019050919050565b60006110a2601e83611405565b91507f496e76616c6964207061697220616464726573732070726f76696465642e00006000830152602082019050919050565b60006110e2602583611405565b91507f556e697377617056324c6962726172793a204944454e544943414c5f4144445260008301527f45535345530000000000000000000000000000000000000000000000000000006020830152604082019050919050565b6000611148603383611405565b91507f4e6f20556e697377617020706169727320617661696c61626c6520746f20647260008301527f61772072616e646f6d6e6573732066726f6d2e000000000000000000000000006020830152604082019050919050565b60006111ae602083611405565b91507f4f776e61626c653a2063616c6c6572206973206e6f7420746865206f776e65726000830152602082019050919050565b60006111ee601e83611405565b91507f556e697377617056324c6962726172793a205a45524f5f4144445245535300006000830152602082019050919050565b61122a816114ec565b82525050565b61124161123c826114ec565b611573565b82525050565b60006112538285610fb2565b6014820191506112638284611230565b6020820191508190509392505050565b60006020820190506112886000830184610fa3565b92915050565b60006060820190506112a36000830186610fa3565b6112b06020830185610fa3565b6112bd6040830184610fa3565b949350505050565b60006080820190506112da6000830187610fa3565b6112e76020830186610fa3565b6112f46040830185610fa3565b6113016060830184611221565b95945050505050565b6000602082019050818103600083015261132381610fc9565b9050919050565b600060208201905081810360008301526113438161102f565b9050919050565b6000602082019050818103600083015261136381611095565b9050919050565b60006020820190508181036000830152611383816110d5565b9050919050565b600060208201905081810360008301526113a38161113b565b9050919050565b600060208201905081810360008301526113c3816111a1565b9050919050565b600060208201905081810360008301526113e3816111e1565b9050919050565b60006020820190506113ff6000830184611221565b92915050565b600082825260208201905092915050565b6000611421826114ec565b915061142c836114ec565b9250827fffffffffffffffffffffffffffffffffffffffffffffffffffffffffffffffff03821115611461576114606115ae565b5b828201905092915050565b6000611477826114ec565b9150611482836114ec565b925082821015611495576114946115ae565b5b828203905092915050565b60006114ab826114cc565b9050919050565b60006dffffffffffffffffffffffffffff82169050919050565b600073ffffffffffffffffffffffffffffffffffffffff82169050919050565b6000819050919050565b600063ffffffff82169050919050565b6000611511826114ec565b91507fffffffffffffffffffffffffffffffffffffffffffffffffffffffffffffffff821415611544576115436115ae565b5b600182019050919050565b600061155a82611561565b9050919050565b600061156c8261160c565b9050919050565b6000819050919050565b6000611588826114ec565b9150611593836114ec565b9250826115a3576115a26115dd565b5b828206905092915050565b7f4e487b7100000000000000000000000000000000000000000000000000000000600052601160045260246000fd5b7f4e487b7100000000000000000000000000000000000000000000000000000000600052601260045260246000fd5b60008160601b9050919050565b611622816114a0565b811461162d57600080fd5b50565b611639816114b2565b811461164457600080fd5b50565b611650816114ec565b811461165b57600080fd5b50565b611667816114f6565b811461167257600080fd5b5056fea26469706673582212205c05a209503d9e29368a9a2270938de90ba640b55d911438832df4e3cbc9328864736f6c63430008000033",
  "linkReferences": {},
  "deployedLinkReferences": {}
}